{"abi":[{"type":"constructor","inputs":[{"name":"_asset","type":"address","internalType":"address"},{"name":"_token0","type":"address","internalType":"address"},{"name":"_token1","type":"address","internalType":"address"},{"name":"_uniswapPool","type":"address","internalType":"address"},{"name":"_positionManager","type":"address","internalType":"address"},{"name":"_swapRouter","type":"address","internalType":"address"},{"name":"_oneInchRouter","type":"address","internalType":"address"},{"name":"_chainlinkPriceFeed","type":"address","internalType":"address"},{"name":"_treasury","type":"address","internalType":"address"}],"stateMutability":"nonpayable"},{"type":"function","name":"ARBITRUM_SEPOLIA_CHAINID","inputs":[],"outputs":[{"name":"","type":"uint256","internalType":"uint256"}],"stateMutability":"view"},{"type":"function","name":"MAX_SLIPPAGE_TESTNET","inputs":[],"outputs":[{"name":"","type":"uint256","internalType":"uint256"}],"stateMutability":"view"},{"type":"function","name":"MIN_DEPOSIT_TESTNET","inputs":[],"outputs":[{"name":"","type":"uint256","internalType":"uint256"}],"stateMutability":"view"},{"type":"function","name":"TIMELOCK_TESTNET","inputs":[],"outputs":[{"name":"","type":"uint256","internalType":"uint256"}],"stateMutability":"view"},{"type":"function","name":"allowance","inputs":[{"name":"owner","type":"address","internalType":"address"},{"name":"spender","type":"address","internalType":"address"}],"outputs":[{"name":"","type":"uint256","internalType":"uint256"}],"stateMutability":"view"},{"type":"function","name":"approve","inputs":[{"name":"spender","type":"address","internalType":"address"},{"name":"value","type":"uint256","internalType":"uint256"}],"outputs":[{"name":"","type":"bool","internalType":"bool"}],"stateMutability":"nonpayable"},{"type":"function","name":"asset","inputs":[],"outputs":[{"name":"","type":"address","internalType":"address"}],"stateMutability":"view"},{"type":"function","name":"autoExit","inputs":[{"name":"price","type":"uint256","internalType":"uint256"},{"name":"reason","type":"uint8","internalType":"enum DeltaNeutralVaultV1.ExitReason"}],"outputs":[],"stateMutability":"nonpayable"},{"type":"function","name":"autoReenter","inputs":[{"name":"price","type":"uint256","internalType":"uint256"},{"name":"_tickLower","type":"int24","internalType":"int24"},{"name":"_tickUpper","type":"int24","internalType":"int24"}],"outputs":[],"stateMutability":"nonpayable"},{"type":"function","name":"balanceOf","inputs":[{"name":"account","type":"address","internalType":"address"}],"outputs":[{"name":"","type":"uint256","internalType":"uint256"}],"stateMutability":"view"},{"type":"function","name":"chainlinkPriceFeed","inputs":[],"outputs":[{"name":"","type":"address","internalType":"contract AggregatorV3Interface"}],"stateMutability":"view"},{"type":"function","name":"collectFees","inputs":[],"outputs":[{"name":"amount0","type":"uint256","internalType":"uint256"},{"name":"amount1","type":"uint256","internalType":"uint256"}],"stateMutability":"nonpayable"},{"type":"function","name":"convertToAssets","inputs":[{"name":"shares","type":"uint256","internalType":"uint256"}],"outputs":[{"name":"","type":"uint256","internalType":"uint256"}],"stateMutability":"view"},{"type":"function","name":"convertToShares","inputs":[{"name":"assets","type":"uint256","internalType":"uint256"}],"outputs":[{"name":"","type":"uint256","internalType":"uint256"}],"stateMutability":"view"},{"type":"function","name":"decimals","inputs":[],"outputs":[{"name":"","type":"uint8","internalType":"uint8"}],"stateMutability":"view"},{"type":"function","name":"deposit","inputs":[{"name":"assets","type":"uint256","internalType":"uint256"},{"name":"receiver","type":"address","internalType":"address"}],"outputs":[{"name":"","type":"uint256","internalType":"uint256"}],"stateMutability":"nonpayable"},{"type":"function","name":"emergencyExitToUSDC","inputs":[],"outputs":[],"stateMutability":"nonpayable"},{"type":"function","name":"entryFeeBps","inputs":[],"outputs":[{"name":"","type":"uint16","internalType":"uint16"}],"stateMutability":"view"},{"type":"function","name":"executeSwapVia1inch","inputs":[{"name":"tokenIn","type":"address","internalType":"address"},{"name":"tokenOut","type":"address","internalType":"address"},{"name":"amountIn","type":"uint256","internalType":"uint256"},{"name":"executor","type":"address","internalType":"address"},{"name":"data","type":"bytes","internalType":"bytes"}],"outputs":[{"name":"amountOut","type":"uint256","internalType":"uint256"}],"stateMutability":"nonpayable"},{"type":"function","name":"exitFeeBps","inputs":[],"outputs":[{"name":"","type":"uint16","internalType":"uint16"}],"stateMutability":"view"},{"type":"function","name":"getMaxSlippage","inputs":[],"outputs":[{"name":"","type":"uint256","internalType":"uint256"}],"stateMutability":"pure"},{"type":"function","name":"getMinDeposit","inputs":[],"outputs":[{"name":"","type":"uint256","internalType":"uint256"}],"stateMutability":"pure"},{"type":"function","name":"getTimelockDuration","inputs":[],"outputs":[{"name":"","type":"uint256","internalType":"uint256"}],"stateMutability":"pure"},{"type":"function","name":"highWaterMark","inputs":[],"outputs":[{"name":"","type":"uint256","internalType":"uint256"}],"stateMutability":"view"},{"type":"function","name":"keeper","inputs":[],"outputs":[{"name":"","type":"address","internalType":"address"}],"stateMutability":"view"},{"type":"function","name":"keeperFeeBps","inputs":[],"outputs":[{"name":"","type":"uint16","internalType":"uint16"}],"stateMutability":"view"},{"type":"function","name":"lastManagementFeeTimestamp","inputs":[],"outputs":[{"name":"","type":"uint256","internalType":"uint256"}],"stateMutability":"view"},{"type":"function","name":"managementFeeBps","inputs":[],"outputs":[{"name":"","type":"uint16","internalType":"uint16"}],"stateMutability":"view"},{"type":"function","name":"maxDeposit","inputs":[{"name":"","type":"address","internalType":"address"}],"outputs":[{"name":"","type":"uint256","internalType":"uint256"}],"stateMutability":"view"},{"type":"function","name":"maxMint","inputs":[{"name":"","type":"address","internalType":"address"}],"outputs":[{"name":"","type":"uint256","internalType":"uint256"}],"stateMutability":"view"},{"type":"function","name":"maxOracleDelay","inputs":[],"outputs":[{"name":"","type":"uint256","internalType":"uint256"}],"stateMutability":"view"},{"type":"function","name":"maxOracleDeviationBps","inputs":[],"outputs":[{"name":"","type":"uint256","internalType":"uint256"}],"stateMutability":"view"},{"type":"function","name":"maxRedeem","inputs":[{"name":"owner","type":"address","internalType":"address"}],"outputs":[{"name":"","type":"uint256","internalType":"uint256"}],"stateMutability":"view"},{"type":"function","name":"maxSlippageBps","inputs":[],"outputs":[{"name":"","type":"uint256","internalType":"uint256"}],"stateMutability":"view"},{"type":"function","name":"maxWithdraw","inputs":[{"name":"owner","type":"address","internalType":"address"}],"outputs":[{"name":"","type":"uint256","internalType":"uint256"}],"stateMutability":"view"},{"type":"function","name":"mint","inputs":[{"name":"shares","type":"uint256","internalType":"uint256"},{"name":"receiver","type":"address","internalType":"address"}],"outputs":[{"name":"","type":"uint256","internalType":"uint256"}],"stateMutability":"nonpayable"},{"type":"function","name":"name","inputs":[],"outputs":[{"name":"","type":"string","internalType":"string"}],"stateMutability":"view"},{"type":"function","name":"onERC721Received","inputs":[{"name":"","type":"address","internalType":"address"},{"name":"","type":"address","internalType":"address"},{"name":"","type":"uint256","internalType":"uint256"},{"name":"","type":"bytes","internalType":"bytes"}],"outputs":[{"name":"","type":"bytes4","internalType":"bytes4"}],"stateMutability":"pure"},{"type":"function","name":"oneInchRouter","inputs":[],"outputs":[{"name":"","type":"address","internalType":"contract I1inchAggregator"}],"stateMutability":"view"},{"type":"function","name":"owner","inputs":[],"outputs":[{"name":"","type":"address","internalType":"address"}],"stateMutability":"view"},{"type":"function","name":"pause","inputs":[],"outputs":[],"stateMutability":"nonpayable"},{"type":"function","name":"paused","inputs":[],"outputs":[{"name":"","type":"bool","internalType":"bool"}],"stateMutability":"view"},{"type":"function","name":"performanceFeeBps","inputs":[],"outputs":[{"name":"","type":"uint16","internalType":"uint16"}],"stateMutability":"view"},{"type":"function","name":"positionManager","inputs":[],"outputs":[{"name":"","type":"address","internalType":"contract INonfungiblePositionManagerCompatible"}],"stateMutability":"view"},{"type":"function","name":"previewDeposit","inputs":[{"name":"assets","type":"uint256","internalType":"uint256"}],"outputs":[{"name":"","type":"uint256","internalType":"uint256"}],"stateMutability":"view"},{"type":"function","name":"previewMint","inputs":[{"name":"shares","type":"uint256","internalType":"uint256"}],"outputs":[{"name":"","type":"uint256","internalType":"uint256"}],"stateMutability":"view"},{"type":"function","name":"previewRedeem","inputs":[{"name":"shares","type":"uint256","internalType":"uint256"}],"outputs":[{"name":"","type":"uint256","internalType":"uint256"}],"stateMutability":"view"},{"type":"function","name":"previewWithdraw","inputs":[{"name":"assets","type":"uint256","internalType":"uint256"}],"outputs":[{"name":"","type":"uint256","internalType":"uint256"}],"stateMutability":"view"},{"type":"function","name":"recordHedgeState","inputs":[{"name":"stateHash","type":"bytes32","internalType":"bytes32"},{"name":"timestamp","type":"uint64","internalType":"uint64"}],"outputs":[],"stateMutability":"nonpayable"},{"type":"function","name":"redeem","inputs":[{"name":"shares","type":"uint256","internalType":"uint256"},{"name":"receiver","type":"address","internalType":"address"},{"name":"owner","type":"address","internalType":"address"}],"outputs":[{"name":"","type":"uint256","internalType":"uint256"}],"stateMutability":"nonpayable"},{"type":"function","name":"renounceOwnership","inputs":[],"outputs":[],"stateMutability":"nonpayable"},{"type":"function","name":"setFees","inputs":[{"name":"_performanceFeeBps","type":"uint16","internalType":"uint16"},{"name":"_managementFeeBps","type":"uint16","internalType":"uint16"},{"name":"_entryFeeBps","type":"uint16","internalType":"uint16"},{"name":"_exitFeeBps","type":"uint16","internalType":"uint16"},{"name":"_swapFeeBps","type":"uint16","internalType":"uint16"},{"name":"_keeperFeeBps","type":"uint16","internalType":"uint16"}],"outputs":[],"stateMutability":"nonpayable"},{"type":"function","name":"setKeeper","inputs":[{"name":"_keeper","type":"address","internalType":"address"}],"outputs":[],"stateMutability":"nonpayable"},{"type":"function","name":"setOneInchRouter","inputs":[{"name":"_oneInchRouter","type":"address","internalType":"address"}],"outputs":[],"stateMutability":"nonpayable"},{"type":"function","name":"setOracles","inputs":[{"name":"_priceFeed","type":"address","internalType":"address"},{"name":"_maxDeviationBps","type":"uint256","internalType":"uint256"},{"name":"_maxDelay","type":"uint256","internalType":"uint256"}],"outputs":[],"stateMutability":"nonpayable"},{"type":"function","name":"setRange","inputs":[{"name":"_tickLower","type":"int24","internalType":"int24"},{"name":"_tickUpper","type":"int24","internalType":"int24"}],"outputs":[],"stateMutability":"nonpayable"},{"type":"function","name":"setSlippageParams","inputs":[{"name":"_maxSlippageBps","type":"uint256","internalType":"uint256"}],"outputs":[],"stateMutability":"nonpayable"},{"type":"function","name":"setTreasury","inputs":[{"name":"_treasury","type":"address","internalType":"address"}],"outputs":[],"stateMutability":"nonpayable"},{"type":"function","name":"setUniswapConfig","inputs":[{"name":"_pool","type":"address","internalType":"address"},{"name":"_positionManager","type":"address","internalType":"address"},{"name":"_swapRouter","type":"address","internalType":"address"}],"outputs":[],"stateMutability":"nonpayable"},{"type":"function","name":"swapFeeBps","inputs":[],"outputs":[{"name":"","type":"uint16","internalType":"uint16"}],"stateMutability":"view"},{"type":"function","name":"swapRouter","inputs":[],"outputs":[{"name":"","type":"address","internalType":"contract ISwapRouter"}],"stateMutability":"view"},{"type":"function","name":"symbol","inputs":[],"outputs":[{"name":"","type":"string","internalType":"string"}],"stateMutability":"view"},{"type":"function","name":"testnet_accrueManagementFee","inputs":[{"name":"secondsToAccrue","type":"uint256","internalType":"uint256"}],"outputs":[],"stateMutability":"nonpayable"},{"type":"function","name":"testnet_emergencyWithdrawAll","inputs":[],"outputs":[],"stateMutability":"nonpayable"},{"type":"function","name":"testnet_forceRebalance","inputs":[{"name":"targetPrice","type":"uint256","internalType":"uint256"},{"name":"newTickLower","type":"int24","internalType":"int24"},{"name":"newTickUpper","type":"int24","internalType":"int24"}],"outputs":[],"stateMutability":"nonpayable"},{"type":"function","name":"testnet_getPositionInfo","inputs":[],"outputs":[{"name":"_tokenId","type":"uint256","internalType":"uint256"},{"name":"_tickLower","type":"int24","internalType":"int24"},{"name":"_tickUpper","type":"int24","internalType":"int24"},{"name":"_currentTick","type":"int24","internalType":"int24"},{"name":"_liquidity","type":"uint128","internalType":"uint128"},{"name":"_balance0","type":"uint256","internalType":"uint256"},{"name":"_balance1","type":"uint256","internalType":"uint256"},{"name":"_inRange","type":"bool","internalType":"bool"}],"stateMutability":"view"},{"type":"function","name":"testnet_resetHighWaterMark","inputs":[],"outputs":[],"stateMutability":"nonpayable"},{"type":"function","name":"testnet_simulateRebalance","inputs":[{"name":"targetPrice","type":"uint256","internalType":"uint256"}],"outputs":[{"name":"suggestedTickLower","type":"int24","internalType":"int24"},{"name":"suggestedTickUpper","type":"int24","internalType":"int24"},{"name":"estimatedAmount0","type":"uint256","internalType":"uint256"},{"name":"estimatedAmount1","type":"uint256","internalType":"uint256"},{"name":"needsRebalance","type":"bool","internalType":"bool"}],"stateMutability":"view"},{"type":"function","name":"tickLower","inputs":[],"outputs":[{"name":"","type":"int24","internalType":"int24"}],"stateMutability":"view"},{"type":"function","name":"tickUpper","inputs":[],"outputs":[{"name":"","type":"int24","internalType":"int24"}],"stateMutability":"view"},{"type":"function","name":"token0","inputs":[],"outputs":[{"name":"","type":"address","internalType":"address"}],"stateMutability":"view"},{"type":"function","name":"token1","inputs":[],"outputs":[{"name":"","type":"address","internalType":"address"}],"stateMutability":"view"},{"type":"function","name":"tokenId","inputs":[],"outputs":[{"name":"","type":"uint256","internalType":"uint256"}],"stateMutability":"view"},{"type":"function","name":"totalAssets","inputs":[],"outputs":[{"name":"","type":"uint256","internalType":"uint256"}],"stateMutability":"view"},{"type":"function","name":"totalSupply","inputs":[],"outputs":[{"name":"","type":"uint256","internalType":"uint256"}],"stateMutability":"view"},{"type":"function","name":"transfer","inputs":[{"name":"to","type":"address","internalType":"address"},{"name":"value","type":"uint256","internalType":"uint256"}],"outputs":[{"name":"","type":"bool","internalType":"bool"}],"stateMutability":"nonpayable"},{"type":"function","name":"transferFrom","inputs":[{"name":"from","type":"address","internalType":"address"},{"name":"to","type":"address","internalType":"address"},{"name":"value","type":"uint256","internalType":"uint256"}],"outputs":[{"name":"","type":"bool","internalType":"bool"}],"stateMutability":"nonpayable"},{"type":"function","name":"transferOwnership","inputs":[{"name":"newOwner","type":"address","internalType":"address"}],"outputs":[],"stateMutability":"nonpayable"},{"type":"function","name":"treasury","inputs":[],"outputs":[{"name":"","type":"address","internalType":"address"}],"stateMutability":"view"},{"type":"function","name":"uniswapPool","inputs":[],"outputs":[{"name":"","type":"address","internalType":"contract IUniswapV3Pool"}],"stateMutability":"view"},{"type":"function","name":"unpause","inputs":[],"outputs":[],"stateMutability":"nonpayable"},{"type":"function","name":"updateAccounting","inputs":[],"outputs":[],"stateMutability":"nonpayable"},{"type":"function","name":"withdraw","inputs":[{"name":"assets","type":"uint256","internalType":"uint256"},{"name":"receiver","type":"address","internalType":"address"},{"name":"owner","type":"address","internalType":"address"}],"outputs":[{"name":"","type":"uint256","internalType":"uint256"}],"stateMutability":"nonpayable"},{"type":"event","name":"AccountingUpdated","inputs":[{"name":"totalAssets","type":"uint256","indexed":false,"internalType":"uint256"},{"name":"totalShares","type":"uint256","indexed":false,"internalType":"uint256"}],"anonymous":false},{"type":"event","name":"Approval","inputs":[{"name":"owner","type":"address","indexed":true,"internalType":"address"},{"name":"spender","type":"address","indexed":true,"internalType":"address"},{"name":"value","type":"uint256","indexed":false,"internalType":"uint256"}],"anonymous":false},{"type":"event","name":"AutoExitExecuted","inputs":[{"name":"price","type":"uint256","indexed":true,"internalType":"uint256"},{"name":"reason","type":"uint8","indexed":true,"internalType":"enum DeltaNeutralVaultV1.ExitReason"},{"name":"totalAssets","type":"uint256","indexed":false,"internalType":"uint256"},{"name":"profit","type":"uint256","indexed":false,"internalType":"uint256"}],"anonymous":false},{"type":"event","name":"AutoReenterExecuted","inputs":[{"name":"price","type":"uint256","indexed":true,"internalType":"uint256"},{"name":"tickLower","type":"int24","indexed":false,"internalType":"int24"},{"name":"tickUpper","type":"int24","indexed":false,"internalType":"int24"},{"name":"totalAssets","type":"uint256","indexed":false,"internalType":"uint256"}],"anonymous":false},{"type":"event","name":"DebugLiquidity","inputs":[{"name":"liquidityBefore","type":"uint128","indexed":false,"internalType":"uint128"},{"name":"liquidityAfter","type":"uint128","indexed":false,"internalType":"uint128"},{"name":"amount0","type":"uint256","indexed":false,"internalType":"uint256"},{"name":"amount1","type":"uint256","indexed":false,"internalType":"uint256"}],"anonymous":false},{"type":"event","name":"DebugRebalance","inputs":[{"name":"oldTickLower","type":"int24","indexed":false,"internalType":"int24"},{"name":"oldTickUpper","type":"int24","indexed":false,"internalType":"int24"},{"name":"newTickLower","type":"int24","indexed":false,"internalType":"int24"},{"name":"newTickUpper","type":"int24","indexed":false,"internalType":"int24"},{"name":"currentTick","type":"int24","indexed":false,"internalType":"int24"},{"name":"priceUsed","type":"uint256","indexed":false,"internalType":"uint256"}],"anonymous":false},{"type":"event","name":"DebugSwap","inputs":[{"name":"tokenIn","type":"address","indexed":false,"internalType":"address"},{"name":"tokenOut","type":"address","indexed":false,"internalType":"address"},{"name":"amountIn","type":"uint256","indexed":false,"internalType":"uint256"},{"name":"amountOut","type":"uint256","indexed":false,"internalType":"uint256"},{"name":"slippageBps","type":"uint256","indexed":false,"internalType":"uint256"}],"anonymous":false},{"type":"event","name":"Deposit","inputs":[{"name":"sender","type":"address","indexed":true,"internalType":"address"},{"name":"owner","type":"address","indexed":true,"internalType":"address"},{"name":"assets","type":"uint256","indexed":false,"internalType":"uint256"},{"name":"shares","type":"uint256","indexed":false,"internalType":"uint256"}],"anonymous":false},{"type":"event","name":"EmergencyExitExecuted","inputs":[{"name":"totalAssets","type":"uint256","indexed":false,"internalType":"uint256"}],"anonymous":false},{"type":"event","name":"EntryFeeCharged","inputs":[{"name":"assets","type":"uint256","indexed":false,"internalType":"uint256"},{"name":"fee","type":"uint256","indexed":false,"internalType":"uint256"}],"anonymous":false},{"type":"event","name":"ExitFeeCharged","inputs":[{"name":"assets","type":"uint256","indexed":false,"internalType":"uint256"},{"name":"fee","type":"uint256","indexed":false,"internalType":"uint256"}],"anonymous":false},{"type":"event","name":"FeesCollected","inputs":[{"name":"amount0","type":"uint256","indexed":false,"internalType":"uint256"},{"name":"amount1","type":"uint256","indexed":false,"internalType":"uint256"}],"anonymous":false},{"type":"event","name":"FeesUpdated","inputs":[{"name":"performanceFeeBps","type":"uint16","indexed":false,"internalType":"uint16"},{"name":"managementFeeBps","type":"uint16","indexed":false,"internalType":"uint16"},{"name":"entryFeeBps","type":"uint16","indexed":false,"internalType":"uint16"},{"name":"exitFeeBps","type":"uint16","indexed":false,"internalType":"uint16"},{"name":"swapFeeBps","type":"uint16","indexed":false,"internalType":"uint16"},{"name":"keeperFeeBps","type":"uint16","indexed":false,"internalType":"uint16"}],"anonymous":false},{"type":"event","name":"HedgeStateRecorded","inputs":[{"name":"stateHash","type":"bytes32","indexed":true,"internalType":"bytes32"},{"name":"timestamp","type":"uint64","indexed":false,"internalType":"uint64"}],"anonymous":false},{"type":"event","name":"KeeperUpdated","inputs":[{"name":"oldKeeper","type":"address","indexed":true,"internalType":"address"},{"name":"newKeeper","type":"address","indexed":true,"internalType":"address"}],"anonymous":false},{"type":"event","name":"ManagementFeeCharged","inputs":[{"name":"fee","type":"uint256","indexed":false,"internalType":"uint256"},{"name":"shares","type":"uint256","indexed":false,"internalType":"uint256"}],"anonymous":false},{"type":"event","name":"OracleUpdated","inputs":[{"name":"priceFeed","type":"address","indexed":true,"internalType":"address"},{"name":"maxDeviationBps","type":"uint256","indexed":false,"internalType":"uint256"},{"name":"maxDelay","type":"uint256","indexed":false,"internalType":"uint256"}],"anonymous":false},{"type":"event","name":"OwnershipTransferred","inputs":[{"name":"previousOwner","type":"address","indexed":true,"internalType":"address"},{"name":"newOwner","type":"address","indexed":true,"internalType":"address"}],"anonymous":false},{"type":"event","name":"Paused","inputs":[{"name":"account","type":"address","indexed":false,"internalType":"address"}],"anonymous":false},{"type":"event","name":"PerformanceFeeCharged","inputs":[{"name":"profit","type":"uint256","indexed":false,"internalType":"uint256"},{"name":"fee","type":"uint256","indexed":false,"internalType":"uint256"}],"anonymous":false},{"type":"event","name":"PositionClosed","inputs":[{"name":"tokenId","type":"uint256","indexed":true,"internalType":"uint256"},{"name":"amount0","type":"uint256","indexed":false,"internalType":"uint256"},{"name":"amount1","type":"uint256","indexed":false,"internalType":"uint256"},{"name":"fees0","type":"uint256","indexed":false,"internalType":"uint256"},{"name":"fees1","type":"uint256","indexed":false,"internalType":"uint256"}],"anonymous":false},{"type":"event","name":"PositionMinted","inputs":[{"name":"tokenId","type":"uint256","indexed":true,"internalType":"uint256"},{"name":"liquidity","type":"uint128","indexed":false,"internalType":"uint128"},{"name":"amount0","type":"uint256","indexed":false,"internalType":"uint256"},{"name":"amount1","type":"uint256","indexed":false,"internalType":"uint256"}],"anonymous":false},{"type":"event","name":"RangeUpdated","inputs":[{"name":"tickLower","type":"int24","indexed":false,"internalType":"int24"},{"name":"tickUpper","type":"int24","indexed":false,"internalType":"int24"}],"anonymous":false},{"type":"event","name":"SlippageParamsUpdated","inputs":[{"name":"maxSlippageBps","type":"uint256","indexed":false,"internalType":"uint256"}],"anonymous":false},{"type":"event","name":"SwapExecuted","inputs":[{"name":"tokenIn","type":"address","indexed":true,"internalType":"address"},{"name":"tokenOut","type":"address","indexed":true,"internalType":"address"},{"name":"amountIn","type":"uint256","indexed":false,"internalType":"uint256"},{"name":"amountOut","type":"uint256","indexed":false,"internalType":"uint256"}],"anonymous":false},{"type":"event","name":"SwapFeeApplied","inputs":[{"name":"amountIn","type":"uint256","indexed":false,"internalType":"uint256"},{"name":"fee","type":"uint256","indexed":false,"internalType":"uint256"}],"anonymous":false},{"type":"event","name":"TestnetEmergencyWithdraw","inputs":[{"name":"amount0","type":"uint256","indexed":false,"internalType":"uint256"},{"name":"amount1","type":"uint256","indexed":false,"internalType":"uint256"},{"name":"recipient","type":"address","indexed":false,"internalType":"address"}],"anonymous":false},{"type":"event","name":"TestnetForceRebalance","inputs":[{"name":"oldTickLower","type":"int24","indexed":false,"internalType":"int24"},{"name":"oldTickUpper","type":"int24","indexed":false,"internalType":"int24"},{"name":"newTickLower","type":"int24","indexed":false,"internalType":"int24"},{"name":"newTickUpper","type":"int24","indexed":false,"internalType":"int24"},{"name":"priceUsed","type":"uint256","indexed":false,"internalType":"uint256"}],"anonymous":false},{"type":"event","name":"TestnetManagementFeeAccrued","inputs":[{"name":"feeAmount","type":"uint256","indexed":false,"internalType":"uint256"},{"name":"sharesMinted","type":"uint256","indexed":false,"internalType":"uint256"},{"name":"simulatedSeconds","type":"uint256","indexed":false,"internalType":"uint256"}],"anonymous":false},{"type":"event","name":"Transfer","inputs":[{"name":"from","type":"address","indexed":true,"internalType":"address"},{"name":"to","type":"address","indexed":true,"internalType":"address"},{"name":"value","type":"uint256","indexed":false,"internalType":"uint256"}],"anonymous":false},{"type":"event","name":"TreasuryUpdated","inputs":[{"name":"oldTreasury","type":"address","indexed":true,"internalType":"address"},{"name":"newTreasury","type":"address","indexed":true,"internalType":"address"}],"anonymous":false},{"type":"event","name":"UniswapConfigUpdated","inputs":[{"name":"pool","type":"address","indexed":true,"internalType":"address"},{"name":"positionManager","type":"address","indexed":true,"internalType":"address"},{"name":"swapRouter","type":"address","indexed":true,"internalType":"address"}],"anonymous":false},{"type":"event","name":"Unpaused","inputs":[{"name":"account","type":"address","indexed":false,"internalType":"address"}],"anonymous":false},{"type":"event","name":"Withdraw","inputs":[{"name":"sender","type":"address","indexed":true,"internalType":"address"},{"name":"receiver","type":"address","indexed":true,"internalType":"address"},{"name":"owner","type":"address","indexed":true,"internalType":"address"},{"name":"assets","type":"uint256","indexed":false,"internalType":"uint256"},{"name":"shares","type":"uint256","indexed":false,"internalType":"uint256"}],"anonymous":false},{"type":"error","name":"ERC20InsufficientAllowance","inputs":[{"name":"spender","type":"address","internalType":"address"},{"name":"allowance","type":"uint256","internalType":"uint256"},{"name":"needed","type":"uint256","internalType":"uint256"}]},{"type":"error","name":"ERC20InsufficientBalance","inputs":[{"name":"sender","type":"address","internalType":"address"},{"name":"balance","type":"uint256","internalType":"uint256"},{"name":"needed","type":"uint256","internalType":"uint256"}]},{"type":"error","name":"ERC20InvalidApprover","inputs":[{"name":"approver","type":"address","internalType":"address"}]},{"type":"error","name":"ERC20InvalidReceiver","inputs":[{"name":"receiver","type":"address","internalType":"address"}]},{"type":"error","name":"ERC20InvalidSender","inputs":[{"name":"sender","type":"address","internalType":"address"}]},{"type":"error","name":"ERC20InvalidSpender","inputs":[{"name":"spender","type":"address","internalType":"address"}]},{"type":"error","name":"ERC4626ExceededMaxDeposit","inputs":[{"name":"receiver","type":"address","internalType":"address"},{"name":"assets","type":"uint256","internalType":"uint256"},{"name":"max","type":"uint256","internalType":"uint256"}]},{"type":"error","name":"ERC4626ExceededMaxMint","inputs":[{"name":"receiver","type":"address","internalType":"address"},{"name":"shares","type":"uint256","internalType":"uint256"},{"name":"max","type":"uint256","internalType":"uint256"}]},{"type":"error","name":"ERC4626ExceededMaxRedeem","inputs":[{"name":"owner","type":"address","internalType":"address"},{"name":"shares","type":"uint256","internalType":"uint256"},{"name":"max","type":"uint256","internalType":"uint256"}]},{"type":"error","name":"ERC4626ExceededMaxWithdraw","inputs":[{"name":"owner","type":"address","internalType":"address"},{"name":"assets","type":"uint256","internalType":"uint256"},{"name":"max","type":"uint256","internalType":"uint256"}]},{"type":"error","name":"EnforcedPause","inputs":[]},{"type":"error","name":"ExpectedPause","inputs":[]},{"type":"error","name":"OwnableInvalidOwner","inputs":[{"name":"owner","type":"address","internalType":"address"}]},{"type":"error","name":"OwnableUnauthorizedAccount","inputs":[{"name":"account","type":"address","internalType":"address"}]},{"type":"error","name":"ReentrancyGuardReentrantCall","inputs":[]},{"type":"error","name":"SafeERC20FailedOperation","inputs":[{"name":"token","type":"address","internalType":"address"}]}],"bytecode":{"object":"0x60c060405234801562000010575f80fd5b5060405162006b6938038062006b698339810160408190526200003391620005c3565b886040518060400160405280601981526020017f44656c74614e65757472616c5661756c7420546573746e65740000000000000081525060405180604001604052806007815260200166646e765553444360c81b8152508484898989338888888160039081620000a4919062000716565b506004620000b3828262000716565b5050505f80620000c9836200049c60201b60201c565b9150915081620000db576012620000dd565b805b60ff1660a05250506001600160a01b0390811660805281166200011a57604051631e4fbdf760e01b81525f60048201526024015b60405180910390fd5b620001258162000535565b5060017f9b779b17422d0df92223018b32b4d1fa46e071723d6817e2486d003becc55f00556001600160a01b038416620001b55760405162461bcd60e51b815260206004820152602a60248201527f44656c74614e65757472616c5661756c743a2074726561737572792063616e6e6044820152696f74206265207a65726f60b01b606482015260840162000111565b6001600160a01b038516620002265760405162461bcd60e51b815260206004820152603060248201527f44656c74614e65757472616c5661756c743a20636861696e6c696e6b2066656560448201526f642063616e6e6f74206265207a65726f60801b606482015260840162000111565b6001600160a01b038316620002995760405162461bcd60e51b815260206004820152603260248201527f44656c74614e65757472616c5661756c743a20706f736974696f6e206d616e616044820152716765722063616e6e6f74206265207a65726f60701b606482015260840162000111565b6001600160a01b038216620003075760405162461bcd60e51b815260206004820152602d60248201527f44656c74614e65757472616c5661756c743a207377617020726f75746572206360448201526c616e6e6f74206265207a65726f60981b606482015260840162000111565b6001600160a01b038116620003765760405162461bcd60e51b815260206004820152602e60248201527f44656c74614e65757472616c5661756c743a2031696e636820726f757465722060448201526d63616e6e6f74206265207a65726f60901b606482015260840162000111565b600780546001600160a01b03199081166001600160a01b039687161790915560088054821696861696909617909555600c8054861693851693909317909255600d80548516918416919091179055600e80549093169116179055505042601255506101f4600955610e10600a55606460145562066eee4614620004525760405162461bcd60e51b815260206004820152602d60248201527f546573746e65745661756c743a204465706c6f79206f6e6c79206f6e2041726260448201526c697472756d205365706f6c696160981b606482015260840162000111565b5050601080546001600160a01b03199081166001600160a01b0398891617909155601180548216968816969096179095555050600b80549093169190931617905550620007e29050565b5f8080620004a960405190565b6040805160048152602481019091526020810180516001600160e01b0390811663313ce56760e01b179091529192505f918291620004eb918891906200058616565b509092509050620004fb83604052565b8180156200050a575060203d10155b801562000518575060ff8111155b62000525575f8062000529565b6001815b94509450505050915091565b600580546001600160a01b038381166001600160a01b0319831681179093556040519116919082907f8be0079c531659141344cd1fd0a4f28419497f9722a3daafe3b4186f6b6457e0905f90a35050565b5f805f60405f855160208701885afa92505f51915060205190509250925092565b80516001600160a01b0381168114620005be575f80fd5b919050565b5f805f805f805f805f6101208a8c031215620005dd575f80fd5b620005e88a620005a7565b9850620005f860208b01620005a7565b97506200060860408b01620005a7565b96506200061860608b01620005a7565b95506200062860808b01620005a7565b94506200063860a08b01620005a7565b93506200064860c08b01620005a7565b92506200065860e08b01620005a7565b9150620006696101008b01620005a7565b90509295985092959850929598565b634e487b7160e01b5f52604160045260245ffd5b600181811c90821680620006a157607f821691505b602082108103620006c057634e487b7160e01b5f52602260045260245ffd5b50919050565b601f8211156200071157805f5260205f20601f840160051c81016020851015620006ed5750805b601f840160051c820191505b818110156200070e575f8155600101620006f9565b50505b505050565b81516001600160401b0381111562000732576200073262000678565b6200074a816200074384546200068c565b84620006c6565b602080601f83116001811462000780575f8415620007685750858301515b5f19600386901b1c1916600185901b178555620007da565b5f85815260208120601f198616915b82811015620007b0578886015182559484019460019091019084016200078f565b5085821015620007ce57878501515f19600388901b60f8161c191681555b505060018460011b0185555b505050505050565b60805160a051616365620008045f395f613dfb01525f61197901526163655ff3fe608060405234801561000f575f80fd5b5060043610610490575f3560e01c80636e553f6511610263578063b460af941161014b578063d0d17b64116100ca578063dd62ed3e1161008f578063dd62ed3e14610a74578063e57e5ba014610aac578063ef8b30f7146109a2578063f0f4426014610ab9578063f2fde38b14610acc578063fdf2f31214610adf575f80fd5b8063d0d17b64146109e5578063d21220a7146109f8578063d8a2b7f014610a0b578063d905777e14610a1e578063d927d34814610a31575f80fd5b8063c4aa739511610110578063c4aa739514610999578063c63d75b6146106f9578063c6e6f592146109a2578063c8796572146109b5578063ce96cb77146109d2575f80fd5b8063b460af9414610938578063b9d4e8791461094b578063ba08765214610960578063bdd3d82514610973578063c31c9c0714610986575f80fd5b806394bf804d116101e2578063a854104e116101a7578063a854104e146108d1578063a9059cbb146108e4578063ac3af208146108f7578063aced16611461090a578063adbfc3121461091d578063b3d7f6b914610925575f80fd5b806394bf804d1461088757806395d89b411461089a5780639733fa80146108a257806399eaafb2146108ab578063a5e40ae7146108be575f80fd5b806377c2d42b1161022857806377c2d42b1461083f578063791b98bc146108485780638096f2c11461085b5780638456cb591461086e5780638da5cb5b14610876575f80fd5b80636e553f65146107d65780636eea9313146107e957806370a08231146107fc578063715018a614610824578063748747e61461082c575f80fd5b80632bf999f5116103865780634cf550421161030557806359c4f905116102ca57806359c4f905146107785780635c975abb1461078c5780635d978aae1461079e5780635fc41f00146107a657806361d027b3146107b057806368b2c476146107c3575f80fd5b80634cf550421461071557806352f1edcc1461071e57806355b812a814610727578063578334ee1461074e57806357b17a5214610763575f80fd5b806338d52e0f1161034b57806338d52e0f146106e95780633f4ba83a146106f1578063402d267d146106f9578063494347e71461070d5780634cdad506146104e1575f80fd5b80632bf999f51461067f5780632db1a2d8146106925780632ffdaf89146106a5578063313ce567146106ba5780633813c35a146106d4575f80fd5b8063142303aa116104125780631d2dc7c3116103d75780631d2dc7c3146105e35780631e8410da146105f657806323b872dd146105ff57806325256c9f1461061257806325e445e41461066c575f80fd5b8063142303aa14610589578063150b7a021461059157806317d70f7c146105c957806318160ddd146105d25780631a6d2f47146105da575f80fd5b8063095ea7b311610458578063095ea7b3146104f45780630a28a477146105175780630dfe16811461052a5780630eaad3f1146105555780630eab7d6314610561575f80fd5b806301e1d11414610494578063046fc7f2146104af5780630634a4c0146104c457806306fdde03146104cc57806307a2d13a146104e1575b5f80fd5b61049c610ae7565b6040519081526020015b60405180910390f35b6104c26104bd3660046155c7565b610bda565b005b6104c2610c80565b6104d4610cb0565b6040516104a691906155de565b61049c6104ef3660046155c7565b610d40565b61050761050236600461563e565b610d51565b60405190151581526020016104a6565b61049c6105253660046155c7565b610d68565b60105461053d906001600160a01b031681565b6040516001600160a01b0390911681526020016104a6565b655af3107a400061049c565b60075461057690600160f01b900461ffff1681565b60405161ffff90911681526020016104a6565b6104c2610d74565b6105b061059f3660046156ad565b630a85bd0160e11b95945050505050565b6040516001600160e01b031990911681526020016104a6565b61049c600f5481565b60025461049c565b61049c6103e881565b6104c26105f136600461571b565b611168565b61049c60135481565b61050761060d366004615736565b6111ff565b61061a611224565b60408051988952600297880b60208a015295870b958801959095529290940b60608601526001600160801b0316608085015260a084019290925260c0830191909152151560e0820152610100016104a6565b6104c261067a366004615774565b611486565b6104c261068d3660046157ca565b61173d565b6104c26106a03660046155c7565b61185f565b60075461057690600160e01b900461ffff1681565b6106c2611969565b60405160ff90911681526020016104a6565b60075461057690600160b01b900461ffff1681565b61053d611977565b6104c261199b565b61049c61070736600461571b565b505f1990565b6104c26119ad565b61049c60095481565b61049c600a5481565b600e5461073b90600160b81b900460020b81565b60405160029190910b81526020016104a6565b60075461057690600160c01b900461ffff1681565b60075461057690600160d01b900461ffff1681565b600e5461073b90600160a01b900460020b81565b600554600160a01b900460ff16610507565b6104c2611a26565b61049c62066eee81565b60075461053d906001600160a01b031681565b6104c26107d13660046157ca565b611aa1565b61049c6107e43660046157fe565b612066565b6104c26107f736600461582c565b61211f565b61049c61080a36600461571b565b6001600160a01b03165f9081526020819052604090205490565b6104c261225c565b6104c261083a36600461571b565b61226d565b61049c61012c81565b600c5461053d906001600160a01b031681565b61049c61086936600461585e565b61232d565b6104c2612531565b6005546001600160a01b031661053d565b61049c6108953660046157fe565b612541565b6104d461255c565b61049c60125481565b6104c26108b93660046158de565b61256b565b6104c26108cc366004615904565b61265e565b6104c26108df366004615942565b612731565b6105076108f236600461563e565b612aad565b600e5461053d906001600160a01b031681565b60065461053d906001600160a01b031681565b6103e861049c565b61049c6109333660046155c7565b612aba565b61049c6109463660046159c0565b612ac6565b60075461057690600160a01b900461ffff1681565b61049c61096e3660046159c0565b612b9e565b600b5461053d906001600160a01b031681565b600d5461053d906001600160a01b031681565b61049c60145481565b61049c6109b03660046155c7565b612c49565b6109bd612c54565b604080519283526020830191909152016104a6565b61049c6109e036600461571b565b612dcb565b6104c26109f33660046159e4565b612dd8565b60115461053d906001600160a01b031681565b60085461053d906001600160a01b031681565b61049c610a2c36600461571b565b612fbc565b610a44610a3f3660046155c7565b612fd9565b60408051600296870b81529490950b6020850152938301919091526060820152901515608082015260a0016104a6565b61049c610a82366004615a10565b6001600160a01b039182165f90815260016020908152604080832093909416825291909152205490565b61049c655af3107a400081565b6104c2610ac736600461571b565b6131ae565b6104c2610ada36600461571b565b613270565b61012c61049c565b5f80610af1611977565b6040516370a0823160e01b81523060048201526001600160a01b0391909116906370a0823190602401602060405180830381865afa158015610b35573d5f803e3d5ffd5b505050506040513d601f19601f82011682018060405250810190610b599190615a3c565b9050600f545f03610b6957919050565b5f80610b736132ad565b601054919350915083906001600160a01b0316610b8e611977565b6001600160a01b031603610bb957610ba68382615a67565b9050610bb28282615a67565b9050610bd2565b610bc38282615a67565b9050610bcf8382615a67565b90505b949350505050565b610be2613362565b612710811115610c455760405162461bcd60e51b8152602060048201526024808201527f44656c74614e65757472616c5661756c743a20736c69707061676520746f6f206044820152630d0d2ced60e31b60648201526084015b60405180910390fd5b60148190556040518181527f21ee8810ab5e8c6d05867f57e49a24c63cb1a61a94aaf2593165d28e4dec7afd9060200160405180910390a150565b610c88613362565b62066eee4614610caa5760405162461bcd60e51b8152600401610c3c90615a7a565b5f601355565b606060038054610cbf90615abf565b80601f0160208091040260200160405190810160405280929190818152602001828054610ceb90615abf565b8015610d365780601f10610d0d57610100808354040283529160200191610d36565b820191905f5260205f20905b815481529060010190602001808311610d1957829003601f168201915b5050505050905090565b5f610d4b825f61338f565b92915050565b5f33610d5e8185856133c7565b5060019392505050565b5f610d4b8260016133d4565b610d7c613362565b62066eee4614610d9e5760405162461bcd60e51b8152600401610c3c90615a7a565b600f5415610fd157600c54600f5460405163133f757160e31b815260048101919091525f916001600160a01b0316906399fbab889060240161018060405180830381865afa158015610df2573d5f803e3d5ffd5b505050506040513d601f19601f82011682018060405250810190610e169190615b34565b505050509750505050505050505f816001600160801b03161115610f6957600c546040805160a081018252600f5481526001600160801b03841660208201525f81830181905260608201524260808201529051630624e65f60e11b81526001600160a01b0390921691630c49ccbe91610e9191600401615c0d565b60408051808303815f875af1158015610eac573d5f803e3d5ffd5b505050506040513d601f19601f82011682018060405250810190610ed09190615c4f565b5050600c5460408051608081018252600f5481523060208201526001600160801b038183018190526060820152905163fc6f786560e01b81526001600160a01b039092169163fc6f786591610f2791600401615c71565b60408051808303815f875af1158015610f42573d5f803e3d5ffd5b505050506040513d601f19601f82011682018060405250810190610f669190615c4f565b50505b600c54600f54604051630852cd8d60e31b81526001600160a01b03909216916342966c6891610f9e9160040190815260200190565b5f604051808303815f87803b158015610fb5575f80fd5b505af1158015610fc7573d5f803e3d5ffd5b50505f600f555050505b6010546040516370a0823160e01b81523060048201525f916001600160a01b0316906370a0823190602401602060405180830381865afa158015611017573d5f803e3d5ffd5b505050506040513d601f19601f8201168201806040525081019061103b9190615a3c565b6011546040516370a0823160e01b81523060048201529192505f916001600160a01b03909116906370a0823190602401602060405180830381865afa158015611086573d5f803e3d5ffd5b505050506040513d601f19601f820116820180604052508101906110aa9190615a3c565b905081156110da576110da6110c76005546001600160a01b031690565b6010546001600160a01b03169084613403565b8015611108576111086110f56005546001600160a01b031690565b6011546001600160a01b03169083613403565b7f83faedd7e49ee35a3dbafaf53026db0ca4c055739565678f5ff42e061399b1a3828261113d6005546001600160a01b031690565b6040805193845260208401929092526001600160a01b03169082015260600160405180910390a15050565b611170613362565b6001600160a01b0381166111dd5760405162461bcd60e51b815260206004820152602e60248201527f44656c74614e65757472616c5661756c743a2031696e636820726f757465722060448201526d63616e6e6f74206265207a65726f60901b6064820152608401610c3c565b600e80546001600160a01b0319166001600160a01b0392909216919091179055565b5f3361120c858285613438565b6112178585856134b4565b60019150505b9392505050565b5f805f805f805f8062066eee461461124e5760405162461bcd60e51b8152600401610c3c90615a7a565b600f54600e546010546040516370a0823160e01b8152306004820152929a50600160a01b8204600290810b9a50600160b81b90920490910b97506001600160a01b0316906370a0823190602401602060405180830381865afa1580156112b6573d5f803e3d5ffd5b505050506040513d601f19601f820116820180604052508101906112da9190615a3c565b6011546040516370a0823160e01b81523060048201529194506001600160a01b0316906370a0823190602401602060405180830381865afa158015611321573d5f803e3d5ffd5b505050506040513d601f19601f820116820180604052508101906113459190615a3c565b9150600f545f146113d057600c54600f5460405163133f757160e31b815260048101919091525f916001600160a01b0316906399fbab889060240161018060405180830381865afa15801561139c573d5f803e3d5ffd5b505050506040513d601f19601f820116820180604052508101906113c09190615b34565b50929e5050505050505050505050505b600b5460408051633850c7bd60e01b815290515f926001600160a01b031691633850c7bd9160048083019260e09291908290030181865afa158015611417573d5f803e3d5ffd5b505050506040513d601f19601f8201168201806040525081019061143b9190615cb4565b5050600e54939a508a9550505050600160a01b9004600290810b9083900b12801591506114795750600e54600160b81b9004600290810b9082900b13155b9150509091929394959697565b61148e613362565b6001600160a01b0383166114f35760405162461bcd60e51b815260206004820152602660248201527f44656c74614e65757472616c5661756c743a20706f6f6c2063616e6e6f74206260448201526565207a65726f60d01b6064820152608401610c3c565b6001600160a01b0382166115645760405162461bcd60e51b815260206004820152603260248201527f44656c74614e65757472616c5661756c743a20706f736974696f6e206d616e616044820152716765722063616e6e6f74206265207a65726f60701b6064820152608401610c3c565b6001600160a01b0381166115d05760405162461bcd60e51b815260206004820152602d60248201527f44656c74614e65757472616c5661756c743a207377617020726f75746572206360448201526c616e6e6f74206265207a65726f60981b6064820152608401610c3c565b600b80546001600160a01b038086166001600160a01b03199283168117909355600c8054868316908416179055600d80549185169190921617905560408051630dfe168160e01b81529051630dfe1681916004808201926020929091908290030181865afa158015611644573d5f803e3d5ffd5b505050506040513d601f19601f820116820180604052508101906116689190615d54565b601080546001600160a01b0319166001600160a01b03928316179055600b546040805163d21220a760e01b81529051919092169163d21220a79160048083019260209291908290030181865afa1580156116c4573d5f803e3d5ffd5b505050506040513d601f19601f820116820180604052508101906116e89190615d54565b601180546001600160a01b0319166001600160a01b039283161790556040518282169184811691908616907f2d2ef1c673f4132fe59d801ab0172c963d940023c0366ec147ecf60143429119905f90a4505050565b6006546001600160a01b031633146117675760405162461bcd60e51b8152600401610c3c90615d6f565b61176f613511565b61177761353c565b8060020b8260020b1261179c5760405162461bcd60e51b8152600401610c3c90615db6565b6117a583613557565b6117ad61368b565b600e805462ffffff838116600160b81b0262ffffff60b81b19918616600160a01b029190911665ffffffffffff60a01b19909216919091171790555f6117f1610ae7565b90506117fb61377c565b60408051600285810b825284900b602082015290810182905284907ff4f6f7d6917112b1ff527190c5b914399bcabfa39858e1b8e6dfddc7be1fd50f9060600160405180910390a25061185a60015f8051602061631083398151915255565b505050565b611867613362565b62066eee46146118895760405162461bcd60e51b8152600401610c3c90615a7a565b5f816012546118989190615a67565b90505f6118a3610ae7565b90505f601254836118b49190615dfb565b6007549091505f9064496cebb8009083906118da90600160b01b900461ffff1686615e0e565b6118e49190615e0e565b6118ee9190615e39565b90508015611962575f61190082612c49565b600754909150611919906001600160a01b031682613dc0565b601285905560408051838152602081018390529081018790527f9d7098a66941c2773bb296a046ba43caffaff774c788d88fc9942563ed178268906060015b60405180910390a1505b5050505050565b5f611972613df4565b905090565b7f000000000000000000000000000000000000000000000000000000000000000090565b6119a3613362565b6119ab613e1f565b565b6006546001600160a01b031633146119d75760405162461bcd60e51b8152600401610c3c90615d6f565b6119df61368b565b7fb4169d2da74b9baf2a80c53f7e59bc5f910a1761e9649972453e57e681743145611a08610ae7565b600254604080519283526020830191909152015b60405180910390a1565b611a2e613362565b611a36613e6f565b611a3e61353c565b611a46613e99565b5f611a4f610ae7565b90507f2c95c6b289f217952f220749ba7a0397f846b8d4dbdafa5923aa7cc368ff55eb81604051611a8291815260200190565b60405180910390a1506119ab60015f8051602061631083398151915255565b611aa9613362565b62066eee4614611acb5760405162461bcd60e51b8152600401610c3c90615a7a565b600e54600f54600160a01b8204600290810b92600160b81b9004900b9015611d1457600c54600f5460405163133f757160e31b815260048101919091525f916001600160a01b0316906399fbab889060240161018060405180830381865afa158015611b39573d5f803e3d5ffd5b505050506040513d601f19601f82011682018060405250810190611b5d9190615b34565b505050509750505050505050505f816001600160801b03161115611cb057600c546040805160a081018252600f5481526001600160801b03841660208201525f81830181905260608201524260808201529051630624e65f60e11b81526001600160a01b0390921691630c49ccbe91611bd891600401615c0d565b60408051808303815f875af1158015611bf3573d5f803e3d5ffd5b505050506040513d601f19601f82011682018060405250810190611c179190615c4f565b5050600c5460408051608081018252600f5481523060208201526001600160801b038183018190526060820152905163fc6f786560e01b81526001600160a01b039092169163fc6f786591611c6e91600401615c71565b60408051808303815f875af1158015611c89573d5f803e3d5ffd5b505050506040513d601f19601f82011682018060405250810190611cad9190615c4f565b50505b600c54600f54604051630852cd8d60e31b81526001600160a01b03909216916342966c6891611ce59160040190815260200190565b5f604051808303815f87803b158015611cfc575f80fd5b505af1158015611d0e573d5f803e3d5ffd5b50505050505b600e805462ffffff858116600160b81b0262ffffff60b81b19918816600160a01b029190911665ffffffffffff60a01b19909216919091171790556010546040516370a0823160e01b81523060048201525f916001600160a01b0316906370a0823190602401602060405180830381865afa158015611d95573d5f803e3d5ffd5b505050506040513d601f19601f82011682018060405250810190611db99190615a3c565b6011546040516370a0823160e01b81523060048201529192505f916001600160a01b03909116906370a0823190602401602060405180830381865afa158015611e04573d5f803e3d5ffd5b505050506040513d601f19601f82011682018060405250810190611e289190615a3c565b90505f821180611e3757505f81115b611e7a5760405162461bcd60e51b81526020600482015260146024820152732737903a37b5b2b739903a37903932b2b73a32b960611b6044820152606401610c3c565b8115611e9d57600c54601054611e9d916001600160a01b0391821691168461427c565b8015611ec057600c54601154611ec0916001600160a01b0391821691168361427c565b600c5460408051610160810182526010546001600160a01b0390811682526011548116602080840191909152600b54845163ddca3f4360e01b815285515f97851696638831645696959086019493169263ddca3f4392600480820193918290030181865afa158015611f34573d5f803e3d5ffd5b505050506040513d601f19601f82011682018060405250810190611f589190615e4c565b62ffffff1681526020018a60020b81526020018960020b81526020018681526020018581526020015f81526020015f8152602001306001600160a01b03168152602001428152506040518263ffffffff1660e01b8152600401611fbb9190615e65565b6080604051808303815f875af1158015611fd7573d5f803e3d5ffd5b505050506040513d601f19601f82011682018060405250810190611ffb9190615f29565b505050600f81905560408051600288810b825287810b60208301528a810b8284015289900b6060820152608081018b905290519192507f5d9fa2405b3c1531c344f52bbeced1c254027c480a0648201a042f26e76294f6919081900360a00190a15050505050505050565b5f61206f613511565b61207761353c565b61207f61368b565b61209e33308561208d611977565b6001600160a01b03169291906142ce565b5f6120a884614304565b90505f6120b482612c49565b90506120c08482613dc0565b60408051868152602081018390526001600160a01b0386169133917fdcbc1c05240f31ff3ad067ef1ee35ce4997762752e3a095284754544f4c709d7910160405180910390a3915050610d4b60015f8051602061631083398151915255565b612127613362565b6001600160a01b0383166121925760405162461bcd60e51b815260206004820152602c60248201527f44656c74614e65757472616c5661756c743a207072696365206665656420636160448201526b6e6e6f74206265207a65726f60a01b6064820152608401610c3c565b6127108211156121f65760405162461bcd60e51b815260206004820152602960248201527f44656c74614e65757472616c5661756c743a206d617820646576696174696f6e604482015268040e8dede40d0d2ced60bb1b6064820152608401610c3c565b600880546001600160a01b0319166001600160a01b0385169081179091556009839055600a82905560408051848152602081018490527fac660c5421eba7ba5bebd78e9af74472393957efa70c03a6ad5b0b7127ac35c3910160405180910390a2505050565b612264613362565b6119ab5f6143b4565b612275613362565b6001600160a01b0381166122dc5760405162461bcd60e51b815260206004820152602860248201527f44656c74614e65757472616c5661756c743a206b65657065722063616e6e6f74604482015267206265207a65726f60c01b6064820152608401610c3c565b600680546001600160a01b038381166001600160a01b0319831681179093556040519116919082907f53d3703fe259def57584466f32d1b94c30278008c683c21b04501c4966f13a69905f90a35050565b6006545f906001600160a01b031633146123595760405162461bcd60e51b8152600401610c3c90615d6f565b61236161353c565b845f0361236f57505f612511565b5f61237986614405565b90505f612384614491565b5090505f670de0b6b3a764000061239b8385615e0e565b6123a59190615e39565b90505f6127106014546127106123bb9190615dfb565b6123c59084615e0e565b6123cf9190615e39565b600e549091506123ec906001600160a01b038d811691168661427c565b6040805160e0810182526001600160a01b03808e1682528c811660208301523082840181905260608301526080820187905260a082018490525f60c0830152600e5492516312aa3caf60e01b8152919216906312aa3caf90612458908c9085908d908d90600401615f8a565b60408051808303815f875af1158015612473573d5f803e3d5ffd5b505050506040513d601f19601f820116820180604052508101906124979190615c4f565b50600e549096506124b5906001600160a01b038e811691165f61427c565b8a6001600160a01b03168c6001600160a01b03167fdd36740e2a012d93061a0d99eaa9107860955de4e90027d3cf465a055026c4078c89604051612503929190918252602082015260400190565b60405180910390a350505050505b61252760015f8051602061631083398151915255565b9695505050505050565b612539613362565b6119ab6145f2565b5f5f195f61254e85612aba565b9050610bd233858388614635565b606060048054610cbf90615abf565b6006546001600160a01b031633146125955760405162461bcd60e51b8152600401610c3c90615d6f565b61259d613511565b6125a561353c565b6125ae82613557565b6125b661368b565b5f6125bf610ae7565b90506125c9613e99565b5f6125d2610ae7565b90505f828211156125f4576125e78383615dfb565b90506125f2816146ae565b505b8360038111156126065761260661601d565b604080518481526020810184905287917fa614a3512497a6249d33448d76f9c11fb5fca7d9e951492fece1532a12ded252910160405180910390a350505061265a60015f8051602061631083398151915255565b5050565b6006546001600160a01b031633146126885760405162461bcd60e51b8152600401610c3c90615d6f565b428167ffffffffffffffff1611156126ee5760405162461bcd60e51b815260206004820152602360248201527f44656c74614e65757472616c5661756c743a206675747572652074696d6573746044820152620616d760ec1b6064820152608401610c3c565b60405167ffffffffffffffff8216815282907f2c66c42e33442340286ed9766a8862867d690791c9f62329cf6509c49e13807b9060200160405180910390a25050565b612739613362565b6105dc8661ffff1611156127a35760405162461bcd60e51b815260206004820152602b60248201527f44656c74614e65757472616c5661756c743a20706572666f726d616e6365206660448201526a0caca40e8dede40d0d2ced60ab1b6064820152608401610c3c565b6103e88561ffff16111561280c5760405162461bcd60e51b815260206004820152602a60248201527f44656c74614e65757472616c5661756c743a206d616e6167656d656e742066656044820152690ca40e8dede40d0d2ced60b31b6064820152608401610c3c565b61ffff84161561286e5760405162461bcd60e51b815260206004820152602760248201527f44656c74614e65757472616c5661756c743a20656e74727920666565206d75736044820152667420626520302560c81b6064820152608401610c3c565b61ffff8316156128cf5760405162461bcd60e51b815260206004820152602660248201527f44656c74614e65757472616c5661756c743a206578697420666565206d75737460448201526520626520302560d01b6064820152608401610c3c565b6103e88261ffff1611156129315760405162461bcd60e51b8152602060048201526024808201527f44656c74614e65757472616c5661756c743a20737761702066656520746f6f206044820152630d0d2ced60e31b6064820152608401610c3c565b6101f48161ffff1611156129965760405162461bcd60e51b815260206004820152602660248201527f44656c74614e65757472616c5661756c743a206b65657065722066656520746f6044820152650de40d0d2ced60d31b6064820152608401610c3c565b85600760146101000a81548161ffff021916908361ffff16021790555084600760166101000a81548161ffff021916908361ffff16021790555083600760186101000a81548161ffff021916908361ffff160217905550826007601a6101000a81548161ffff021916908361ffff160217905550816007601c6101000a81548161ffff021916908361ffff160217905550806007601e6101000a81548161ffff021916908361ffff1602179055507fef0a181aded030c02b866bec027594ad4619274061338a7b44465abaac92dc928686868686866040516119589695949392919061ffff96871681529486166020860152928516604085015290841660608401528316608083015290911660a082015260c00190565b5f33610d5e8185856134b4565b5f610d4b82600161338f565b5f612acf613511565b612ad761353c565b612adf61368b565b5f612ae985610d68565b9050336001600160a01b03841614612b0657612b06833383613438565b612b1083826147af565b5f612b1a866147e3565b9050612b398582612b29611977565b6001600160a01b03169190613403565b60408051878152602081018490526001600160a01b03808716929088169133917ffbde797d201c681b91056529119e0b02407c7bb96a4a2c75c01fc9667232c8db91015b60405180910390a450905061121d60015f8051602061631083398151915255565b5f612ba7613511565b612baf61353c565b612bb761368b565b336001600160a01b03831614612bd257612bd2823386613438565b5f612bdc85610d40565b9050612be883866147af565b5f612bf2826147e3565b9050612c018582612b29611977565b60408051838152602081018890526001600160a01b03808716929088169133917ffbde797d201c681b91056529119e0b02407c7bb96a4a2c75c01fc9667232c8db9101612b7d565b5f610d4b825f6133d4565b6006545f9081906001600160a01b03163314612c825760405162461bcd60e51b8152600401610c3c90615d6f565b612c8a61353c565b600f545f03612cdb5760405162461bcd60e51b815260206004820152601e60248201527f44656c74614e65757472616c5661756c743a206e6f20706f736974696f6e00006044820152606401610c3c565b60408051608081018252600f5481523060208201526001600160801b038183018190526060820152600c54915163fc6f786560e01b815290916001600160a01b03169063fc6f786590612d32908490600401615c71565b60408051808303815f875af1158015612d4d573d5f803e3d5ffd5b505050506040513d601f19601f82011682018060405250810190612d719190615c4f565b60408051838152602081018390529295509093507f49d512bf9cb224241c05691e73eb9fab078cf350c7dbcbcf66788f1fc0cc8b0b910160405180910390a150612dc760015f8051602061631083398151915255565b9091565b5f610d4b6104ef83612fbc565b612de0613362565b8060020b8260020b12612e055760405162461bcd60e51b8152600401610c3c90615db6565b600b54604080516334324e9f60e21b815290515f926001600160a01b03169163d0c93a7c9160048083019260209291908290030181865afa158015612e4c573d5f803e3d5ffd5b505050506040513d601f19601f82011682018060405250810190612e709190616031565b9050612e7c818461604c565b60020b15612ed85760405162461bcd60e51b8152602060048201526024808201527f44656c74614e65757472616c5661756c743a20696e76616c6964207469636b4c60448201526337bbb2b960e11b6064820152608401610c3c565b612ee2818361604c565b60020b15612f3e5760405162461bcd60e51b8152602060048201526024808201527f44656c74614e65757472616c5661756c743a20696e76616c6964207469636b55604482015263383832b960e11b6064820152608401610c3c565b600e805462ffffff848116600160b81b0262ffffff60b81b19918716600160a01b029190911665ffffffffffff60a01b199092169190911717905560408051600285810b825284900b60208201527f82b9c5defbc17239e92c36b89929e50094c4816a6756df97cdf28967d5f2fd5e910160405180910390a1505050565b6001600160a01b0381165f90815260208190526040812054610d4b565b5f805f805f62066eee46146130005760405162461bcd60e51b8152600401610c3c90615a7a565b5f61300a87614888565b90505f600b5f9054906101000a90046001600160a01b03166001600160a01b031663d0c93a7c6040518163ffffffff1660e01b8152600401602060405180830381865afa15801561305d573d5f803e3d5ffd5b505050506040513d601f19601f820116820180604052508101906130819190616031565b9050808061309060c88561606d565b61309a9190616092565b6130a491906160ca565b965080806130b38460c86160f0565b6130bd9190616092565b6130c791906160ca565b95505f6130d2610ae7565b90506130df600282615e39565b95506130ec600282615e39565b94505f80600b5f9054906101000a90046001600160a01b03166001600160a01b0316633850c7bd6040518163ffffffff1660e01b815260040160e060405180830381865afa158015613140573d5f803e3d5ffd5b505050506040513d601f19601f820116820180604052508101906131649190615cb4565b5050600e54949650929450505050600160a01b9004600290810b9082900b128061319e5750600e54600160b81b9004600290810b9082900b135b9550505050505091939590929450565b6131b6613362565b6001600160a01b03811661321f5760405162461bcd60e51b815260206004820152602a60248201527f44656c74614e65757472616c5661756c743a2074726561737572792063616e6e6044820152696f74206265207a65726f60b01b6064820152608401610c3c565b600780546001600160a01b038381166001600160a01b0319831681179093556040519116919082907f4ab5be82436d353e61ca18726e984e561f5c1cc7c6d38b29d2553c790434705a905f90a35050565b613278613362565b6001600160a01b0381166132a157604051631e4fbdf760e01b81525f6004820152602401610c3c565b6132aa816143b4565b50565b5f80600f545f036132c057505f91829150565b600c54600f5460405163133f757160e31b815260048101919091525f91829182916001600160a01b0316906399fbab889060240161018060405180830381865afa158015613310573d5f803e3d5ffd5b505050506040513d601f19601f820116820180604052508101906133349190615b34565b9b509b505050995050505050505050816001600160801b03169450806001600160801b031693505050509091565b6005546001600160a01b031633146119ab5760405163118cdaa760e01b8152336004820152602401610c3c565b5f61121d61339b610ae7565b6133a6906001615a67565b6133b15f600a6161f5565b6002546133be9190615a67565b85919085614895565b61185a83838360016148d7565b5f61121d6133e382600a6161f5565b6002546133f09190615a67565b6133f8610ae7565b6133be906001615a67565b613410838383600161499b565b61185a57604051635274afe760e01b81526001600160a01b0384166004820152602401610c3c565b6001600160a01b038381165f908152600160209081526040808320938616835292905220545f198110156134ae57818110156134a057604051637dc7a0d960e11b81526001600160a01b03841660048201526024810182905260448101839052606401610c3c565b6134ae84848484035f6148d7565b50505050565b6001600160a01b0383166134dd57604051634b637e8f60e11b81525f6004820152602401610c3c565b6001600160a01b0382166135065760405163ec442f0560e01b81525f6004820152602401610c3c565b61185a8383836149fd565b600554600160a01b900460ff16156119ab5760405163d93c066560e01b815260040160405180910390fd5b613544614b23565b60025f8051602061631083398151915255565b5f80613561614491565b600a5491935091506135738242615dfb565b11156135d05760405162461bcd60e51b815260206004820152602660248201527f44656c74614e65757472616c5661756c743a206f7261636c65206461746120746044820152651bdbc81bdb1960d21b6064820152608401610c3c565b5f8284111561360157826135e48186615dfb565b6135f090612710615e0e565b6135fa9190615e39565b9050613625565b8261360c8582615dfb565b61361890612710615e0e565b6136229190615e39565b90505b6009548111156134ae5760405162461bcd60e51b815260206004820152602b60248201527f44656c74614e65757472616c5661756c743a207072696365206465766961746960448201526a0dedc40e8dede40d0d2ced60ab1b6064820152608401610c3c565b600754600160b01b900461ffff165f036136a157565b5f601254426136b09190615dfb565b9050805f036136bc5750565b5f6136c5610ae7565b9050805f036136d657505042601255565b6007545f9064496cebb8009084906136f990600160b01b900461ffff1685615e0e565b6137039190615e0e565b61370d9190615e39565b90508015613773575f61371f82612c49565b600754909150613738906001600160a01b031682613dc0565b60408051838152602081018390527fa0c6ff14cb80ab9c9fd8e115a2ea6bfa11edd7861096df779289e419d96a343a910160405180910390a1505b50504260125550565b600b546001600160a01b03166137d45760405162461bcd60e51b815260206004820152601f60248201527f44656c74614e65757472616c5661756c743a20706f6f6c206e6f7420736574006044820152606401610c3c565b600e54600160b81b8104600290810b600160a01b909204900b1261383a5760405162461bcd60e51b815260206004820181905260248201527f44656c74614e65757472616c5661756c743a20696e76616c69642072616e67656044820152606401610c3c565b600f541561389d5760405162461bcd60e51b815260206004820152602a60248201527f44656c74614e65757472616c5661756c743a20706f736974696f6e20616c72656044820152696164792065786973747360b01b6064820152608401610c3c565b5f6138a6611977565b6040516370a0823160e01b81523060048201526001600160a01b0391909116906370a0823190602401602060405180830381865afa1580156138ea573d5f803e3d5ffd5b505050506040513d601f19601f8201168201806040525081019061390e9190615a3c565b90505f811161396b5760405162461bcd60e51b8152602060048201526024808201527f44656c74614e65757472616c5661756c743a206e6f205553444320746f20696e6044820152631d995cdd60e21b6064820152608401610c3c565b6010545f906001600160a01b0316613981611977565b6001600160a01b03161490505f806139998484614b52565b915091508280156139a957505f81115b15613a66575f6139b98284615a67565b6139c38387615e0e565b6139cd9190615e39565b90506139ec6139da611977565b6011546001600160a01b031683614c22565b91506139f6611977565b6040516370a0823160e01b81523060048201526001600160a01b0391909116906370a0823190602401602060405180830381865afa158015613a3a573d5f803e3d5ffd5b505050506040513d601f19601f82011682018060405250810190613a5e9190615a3c565b925050613b2c565b82158015613a7357505f82115b15613b2c575f613a838284615a67565b613a8d8487615e0e565b613a979190615e39565b9050613ab6613aa4611977565b6010546001600160a01b031683614c22565b9250613ac0611977565b6040516370a0823160e01b81523060048201526001600160a01b0391909116906370a0823190602401602060405180830381865afa158015613b04573d5f803e3d5ffd5b505050506040513d601f19601f82011682018060405250810190613b289190615a3c565b9150505b600c54601054613b49916001600160a01b0391821691168461427c565b600c54601154613b66916001600160a01b0391821691168361427c565b5f612710601454612710613b7a9190615dfb565b613b849085615e0e565b613b8e9190615e39565b90505f612710601454612710613ba49190615dfb565b613bae9085615e0e565b613bb89190615e39565b60408051610160810182526010546001600160a01b0390811682526011548116602080840191909152600b54845163ddca3f4360e01b815285519697505f969495860194919093169263ddca3f439260048083019391928290030181865afa158015613c26573d5f803e3d5ffd5b505050506040513d601f19601f82011682018060405250810190613c4a9190615e4c565b62ffffff168152600e54600160a01b8104600290810b6020840152600160b81b909104900b604080830191909152606082018890526080820187905260a0820186905260c082018590523060e08301524261010090920191909152600c549051634418b22b60e11b81529192505f918291829182916001600160a01b031690638831645690613cdd908890600401615e65565b6080604051808303815f875af1158015613cf9573d5f803e3d5ffd5b505050506040513d601f19601f82011682018060405250810190613d1d9190615f29565b600f849055600c546010549498509296509094509250613d4a916001600160a01b0390811691165f61427c565b600c54601154613d67916001600160a01b0391821691165f61427c565b604080516001600160801b03851681526020810184905290810182905284907f7180ba4ffa4be9136434b7fa9b09c2c9e382d100e6850652637d0406f33110ff9060600160405180910390a25050505050505050505050565b6001600160a01b038216613de95760405163ec442f0560e01b81525f6004820152602401610c3c565b61265a5f83836149fd565b5f611972817f0000000000000000000000000000000000000000000000000000000000000000616203565b613e27613e6f565b6005805460ff60a01b191690557f5db9ee0a495bf2e6ff9c91a7834c1ba4fdd244a5e8aa4e537bd38aeae4b073aa335b6040516001600160a01b039091168152602001611a1c565b600554600160a01b900460ff166119ab57604051638dfc202b60e01b815260040160405180910390fd5b600f545f03613ea457565b600c54600f5460405163133f757160e31b815260048101919091525f916001600160a01b0316906399fbab889060240161018060405180830381865afa158015613ef0573d5f803e3d5ffd5b505050506040513d601f19601f82011682018060405250810190613f149190615b34565b505050509750505050505050505f816001600160801b03161115613fd4576040805160a081018252600f5481526001600160801b03831660208201525f8183018190526060820152426080820152600c549151630624e65f60e11b815290916001600160a01b031690630c49ccbe90613f91908490600401615c0d565b60408051808303815f875af1158015613fac573d5f803e3d5ffd5b505050506040513d601f19601f82011682018060405250810190613fd09190615c4f565b5050505b60408051608081018252600f5481523060208201526001600160801b038183018190526060820152600c54915163fc6f786560e01b815290915f9182916001600160a01b03169063fc6f78659061402f908690600401615c71565b60408051808303815f875af115801561404a573d5f803e3d5ffd5b505050506040513d601f19601f8201168201806040525081019061406e9190615c4f565b600c54600f54604051630852cd8d60e31b81529395509193506001600160a01b0316916342966c68916140a79160040190815260200190565b5f604051808303815f87803b1580156140be575f80fd5b505af11580156140d0573d5f803e3d5ffd5b5050600f5460408051868152602081018690525f818301819052606082015290519193507fa5ffa54c20fe3f85702db9dfbd52388f27504faa97794a1edfe2b2cafeb1a483925081900360800190a25f600f8190556010546040516370a0823160e01b81523060048201526001600160a01b03909116906370a0823190602401602060405180830381865afa15801561416b573d5f803e3d5ffd5b505050506040513d601f19601f8201168201806040525081019061418f9190615a3c565b6011546040516370a0823160e01b81523060048201529192505f916001600160a01b03909116906370a0823190602401602060405180830381865afa1580156141da573d5f803e3d5ffd5b505050506040513d601f19601f820116820180604052508101906141fe9190615a3c565b6010549091506001600160a01b0316614215611977565b6001600160a01b03160361424e57801561424957601154614247906001600160a01b0316614241611977565b83614c22565b505b614274565b811561427457601054614272906001600160a01b031661426c611977565b84614c22565b505b505050505050565b6142888383835f614ebc565b61185a5761429983835f6001614ebc565b6142c157604051635274afe760e01b81526001600160a01b0384166004820152602401610c3c565b6134108383836001614ebc565b6142dc848484846001614f06565b6134ae57604051635274afe760e01b81526001600160a01b0385166004820152602401610c3c565b6007545f90600160c01b900461ffff16810361431e575090565b6007545f906127109061433c90600160c01b900461ffff1685615e0e565b6143469190615e39565b90506143528184615dfb565b915080156143ae57600754614373906001600160a01b031682612b29611977565b60408051848152602081018390527fa817354608f61b7fe0d1d6e3e80474440080c06153c4304039bbfc9b466dee8191015b60405180910390a15b50919050565b600580546001600160a01b038381166001600160a01b0319831681179093556040519116919082907f8be0079c531659141344cd1fd0a4f28419497f9722a3daafe3b4186f6b6457e0905f90a35050565b6007545f90600160e01b900461ffff16810361441f575090565b6007545f906127109061443d90600160e01b900461ffff1685615e0e565b6144479190615e39565b90506144538184615dfb565b915080156143ae5760408051848152602081018390527f5a1766550e4ad7a7aed3ae02c0d8964ea55530b5e34ad02983f3aadf54343aee91016143a5565b5f805f805f8060085f9054906101000a90046001600160a01b03166001600160a01b031663feaf968c6040518163ffffffff1660e01b815260040160a060405180830381865afa1580156144e7573d5f803e3d5ffd5b505050506040513d601f19601f8201168201806040525081019061450b9190616235565b9450945050935093505f83136145735760405162461bcd60e51b815260206004820152602760248201527f44656c74614e65757472616c5661756c743a20696e76616c6964206f7261636c6044820152666520707269636560c81b6064820152608401610c3c565b8369ffffffffffffffffffff168169ffffffffffffffffffff1610156145e75760405162461bcd60e51b8152602060048201526024808201527f44656c74614e65757472616c5661756c743a207374616c65206f7261636c65206044820152636461746160e01b6064820152608401610c3c565b509094909350915050565b6145fa613511565b6005805460ff60a01b1916600160a01b1790557f62e78cea01bee320cd4e420270b5ea74000d11b0c9f74754ebdbfc544b05a258613e573390565b614648614640611977565b8530856142ce565b6146528382613dc0565b826001600160a01b0316846001600160a01b03167fdcbc1c05240f31ff3ad067ef1ee35ce4997762752e3a095284754544f4c709d784846040516146a0929190918252602082015260400190565b60405180910390a350505050565b6007545f90600160a01b900461ffff1615806146c8575081155b156146d1575090565b5f6146da610ae7565b90506013548111156147a8575f601354826146f59190615dfb565b9050838111156147025750825b6007545f906127109061472090600160a01b900461ffff1684615e0e565b61472a9190615e39565b90506147368186615dfb565b9350801561479c575f61474882612c49565b600754909150614761906001600160a01b031682613dc0565b60408051878152602081018490527fe63e4ecd17ba7170c4b78fcbb3b74a9e4a07ee6d85d6a31503c838f52fa67e9c910160405180910390a1505b505060138190556143ae565b5090919050565b6001600160a01b0382166147d857604051634b637e8f60e11b81525f6004820152602401610c3c565b61265a825f836149fd565b6007545f90600160d01b900461ffff1681036147fd575090565b6007545f906127109061481b90600160d01b900461ffff1685615e0e565b6148259190615e39565b90506148318184615dfb565b915080156143ae57600754614852906001600160a01b031682612b29611977565b60408051848152602081018390527f18085c7433e68b8076dd7dab070eee9c112dafb874364583ba24a4a3f7f306cc91016143a5565b5f8061121d606484615e39565b5f6148c26148a283614f73565b80156148bd57505f84806148b8576148b8615e25565b868809115b151590565b6148cd868686614f9f565b610bcf9190615a67565b6001600160a01b0384166149005760405163e602df0560e01b81525f6004820152602401610c3c565b6001600160a01b03831661492957604051634a1406b160e11b81525f6004820152602401610c3c565b6001600160a01b038085165f90815260016020908152604080832093871683529290522082905580156134ae57826001600160a01b0316846001600160a01b03167f8c5be1e5ebec7d5bd14f71427d1e84f3dd0314c0f7b2291e5b200ac8c7c3b925846040516146a091815260200190565b60405163a9059cbb60e01b5f8181526001600160a01b038616600452602485905291602083604481808b5af1925060015f511483166149f15783831516156149e5573d5f823e3d81fd5b5f873b113d1516831692505b60405250949350505050565b6001600160a01b038316614a27578060025f828254614a1c9190615a67565b90915550614a979050565b6001600160a01b0383165f9081526020819052604090205481811015614a795760405163391434e360e21b81526001600160a01b03851660048201526024810182905260448101839052606401610c3c565b6001600160a01b0384165f9081526020819052604090209082900390555b6001600160a01b038216614ab357600280548290039055614ad1565b6001600160a01b0382165f9081526020819052604090208054820190555b816001600160a01b0316836001600160a01b03167fddf252ad1be2c89b69c2b068fc378daa952ba7f163c4a11628f55a4df523b3ef83604051614b1691815260200190565b60405180910390a3505050565b5f80516020616310833981519152546002036119ab57604051633ee5aeb560e01b815260040160405180910390fd5b5f805f600b5f9054906101000a90046001600160a01b03166001600160a01b0316633850c7bd6040518163ffffffff1660e01b815260040160e060405180830381865afa158015614ba5573d5f803e3d5ffd5b505050506040513d601f19601f82011682018060405250810190614bc99190615cb4565b50505050505090505f614bea600e60149054906101000a900460020b61504f565b600e549091505f90614c0590600160b81b900460020b61504f565b9050614c14878484848a615460565b909890975095505050505050565b5f815f03614c3157505f61121d565b5f614c3b83614405565b600d54909150614c58906001600160a01b0387811691168361427c565b5f614c61614491565b5090505f670de0b6b3a7640000614c788385615e0e565b614c829190615e39565b90505f612710601454612710614c989190615dfb565b614ca29084615e0e565b614cac9190615e39565b90505f6040518061010001604052808a6001600160a01b03168152602001896001600160a01b03168152602001600b5f9054906101000a90046001600160a01b03166001600160a01b031663ddca3f436040518163ffffffff1660e01b8152600401602060405180830381865afa158015614d29573d5f803e3d5ffd5b505050506040513d601f19601f82011682018060405250810190614d4d9190615e4c565b62ffffff9081168252306020808401919091524260408085019190915260608085018b905260808086018990525f60a096870152600d54835163414bf38960e01b815288516001600160a01b0390811660048301529589015186166024820152938801519095166044840152908601518316606483015285015160848201529284015160a484015260c084015160c484015260e0840151811660e4840152929350919091169063414bf38990610104016020604051808303815f875af1158015614e19573d5f803e3d5ffd5b505050506040513d601f19601f82011682018060405250810190614e3d9190615a3c565b600d54909650614e5a906001600160a01b038b811691165f61427c565b876001600160a01b0316896001600160a01b03167fdd36740e2a012d93061a0d99eaa9107860955de4e90027d3cf465a055026c4078989604051614ea8929190918252602082015260400190565b60405180910390a350505050509392505050565b60405163095ea7b360e01b5f8181526001600160a01b038616600452602485905291602083604481808b5af1925060015f511483166149f15783831516156149e5573d5f823e3d81fd5b6040516323b872dd60e01b5f8181526001600160a01b038781166004528616602452604485905291602083606481808c5af1925060015f51148316614f62578383151615614f56573d5f823e3d81fd5b5f883b113d1516831692505b604052505f60605295945050505050565b5f6002826003811115614f8857614f8861601d565b614f929190616281565b60ff166001149050919050565b5f805f614fac868661559a565b91509150815f03614fd057838181614fc657614fc6615e25565b049250505061121d565b818411614fe757614fe760038515026011186155b6565b5f848688095f868103871696879004966002600389028118808a02820302808a02820302808a02820302808a02820302808a02820302808a02909103029181900381900460010185841190960395909502919093039390930492909217029150509392505050565b5f805f8360020b12615064578260020b615071565b8260020b615071906162a2565b9050615080620d89e7196162bc565b60020b8111156150b65760405162461bcd60e51b81526020600482015260016024820152601560fa1b6044820152606401610c3c565b5f816001165f036150cb57600160801b6150dd565b6ffffcb933bd6fad37aa2d162d1a5940015b70ffffffffffffffffffffffffffffffffff169050600282161561511c576080615117826ffff97272373d413259a46990580e213a615e0e565b901c90505b6004821615615146576080615141826ffff2e50f5f656932ef12357cf3c7fdcc615e0e565b901c90505b600882161561517057608061516b826fffe5caca7e10e4e61c3624eaa0941cd0615e0e565b901c90505b601082161561519a576080615195826fffcb9843d60f6159c9db58835c926644615e0e565b901c90505b60208216156151c45760806151bf826fff973b41fa98c081472e6896dfb254c0615e0e565b901c90505b60408216156151ee5760806151e9826fff2ea16466c96a3843ec78b326b52861615e0e565b901c90505b6080821615615218576080615213826ffe5dee046a99a2a811c461f1969c3053615e0e565b901c90505b61010082161561524357608061523e826ffcbe86c7900a88aedcffc83b479aa3a4615e0e565b901c90505b61020082161561526e576080615269826ff987a7253ac413176f2b074cf7815e54615e0e565b901c90505b610400821615615299576080615294826ff3392b0822b70005940c7a398e4b70f3615e0e565b901c90505b6108008216156152c45760806152bf826fe7159475a2c29b7443b29c7fa6e889d9615e0e565b901c90505b6110008216156152ef5760806152ea826fd097f3bdfd2022b8845ad8f792aa5825615e0e565b901c90505b61200082161561531a576080615315826fa9f746462d870fdf8a65dc1f90e061e5615e0e565b901c90505b614000821615615345576080615340826f70d869a156d2a1b890bb3df62baf32f7615e0e565b901c90505b61800082161561537057608061536b826f31be135f97d08fd981231505542fcfa6615e0e565b901c90505b6201000082161561539c576080615397826f09aa508b5b7a84e1c677de54f3e99bc9615e0e565b901c90505b620200008216156153c75760806153c2826e5d6af8dedb81196699c329225ee604615e0e565b901c90505b620400008216156153f15760806153ec826d2216e584f5fa1ea926041bedfe98615e0e565b901c90505b62080000821615615419576080615414826b048a170391f7dc42444e8fa2615e0e565b901c90505b5f8460020b13156154325761542f815f19615e39565b90505b615441640100000000826162dc565b1561544d57600161544f565b5f5b610bd29060ff16602083901c615a67565b5f80836001600160a01b0316856001600160a01b03161115615480579293925b846001600160a01b0316866001600160a01b0316116154b35782156154a957508590505f615590565b505f905085615590565b836001600160a01b0316866001600160a01b0316106154e65782156154dc57505f905085615590565b508590505f615590565b5f6154f186886162ef565b6001600160a01b031690505f61550787876162ef565b6001600160a01b031690505f8161552084612710615e0e565b61552a9190615e39565b905085156155665761271061553f8282615dfb565b615549908c615e0e565b6155539190615e39565b945061555f858b615dfb565b935061558c565b612710615573828c615e0e565b61557d9190615e39565b9350615589848b615dfb565b94505b5050505b9550959350505050565b5f805f1983850993909202808410938190039390930393915050565b634e487b715f52806020526024601cfd5b5f602082840312156155d7575f80fd5b5035919050565b5f602080835283518060208501525f5b8181101561560a578581018301518582016040015282016155ee565b505f604082860101526040601f19601f8301168501019250505092915050565b6001600160a01b03811681146132aa575f80fd5b5f806040838503121561564f575f80fd5b823561565a8161562a565b946020939093013593505050565b5f8083601f840112615678575f80fd5b50813567ffffffffffffffff81111561568f575f80fd5b6020830191508360208285010111156156a6575f80fd5b9250929050565b5f805f805f608086880312156156c1575f80fd5b85356156cc8161562a565b945060208601356156dc8161562a565b935060408601359250606086013567ffffffffffffffff8111156156fe575f80fd5b61570a88828901615668565b969995985093965092949392505050565b5f6020828403121561572b575f80fd5b813561121d8161562a565b5f805f60608486031215615748575f80fd5b83356157538161562a565b925060208401356157638161562a565b929592945050506040919091013590565b5f805f60608486031215615786575f80fd5b83356157918161562a565b925060208401356157a18161562a565b915060408401356157b18161562a565b809150509250925092565b8060020b81146132aa575f80fd5b5f805f606084860312156157dc575f80fd5b8335925060208401356157ee816157bc565b915060408401356157b1816157bc565b5f806040838503121561580f575f80fd5b8235915060208301356158218161562a565b809150509250929050565b5f805f6060848603121561583e575f80fd5b83356158498161562a565b95602085013595506040909401359392505050565b5f805f805f8060a08789031215615873575f80fd5b863561587e8161562a565b9550602087013561588e8161562a565b94506040870135935060608701356158a58161562a565b9250608087013567ffffffffffffffff8111156158c0575f80fd5b6158cc89828a01615668565b979a9699509497509295939492505050565b5f80604083850312156158ef575f80fd5b82359150602083013560048110615821575f80fd5b5f8060408385031215615915575f80fd5b82359150602083013567ffffffffffffffff81168114615821575f80fd5b61ffff811681146132aa575f80fd5b5f805f805f8060c08789031215615957575f80fd5b863561596281615933565b9550602087013561597281615933565b9450604087013561598281615933565b9350606087013561599281615933565b925060808701356159a281615933565b915060a08701356159b281615933565b809150509295509295509295565b5f805f606084860312156159d2575f80fd5b8335925060208401356157a18161562a565b5f80604083850312156159f5575f80fd5b8235615a00816157bc565b91506020830135615821816157bc565b5f8060408385031215615a21575f80fd5b8235615a2c8161562a565b915060208301356158218161562a565b5f60208284031215615a4c575f80fd5b5051919050565b634e487b7160e01b5f52601160045260245ffd5b80820180821115610d4b57610d4b615a53565b60208082526025908201527f546573746e65744f6e6c793a204d75737420626520417262697472756d205365604082015264706f6c696160d81b606082015260800190565b600181811c90821680615ad357607f821691505b6020821081036143ae57634e487b7160e01b5f52602260045260245ffd5b8051615afc8161562a565b919050565b805162ffffff81168114615afc575f80fd5b8051615afc816157bc565b80516001600160801b0381168114615afc575f80fd5b5f805f805f805f805f805f806101808d8f031215615b50575f80fd5b8c516bffffffffffffffffffffffff81168114615b6b575f80fd5b9b50615b7960208e01615af1565b9a50615b8760408e01615af1565b9950615b9560608e01615af1565b9850615ba360808e01615b01565b9750615bb160a08e01615b13565b9650615bbf60c08e01615b13565b9550615bcd60e08e01615b1e565b94506101008d015193506101208d01519250615bec6101408e01615b1e565b9150615bfb6101608e01615b1e565b90509295989b509295989b509295989b565b5f60a082019050825182526001600160801b03602084015116602083015260408301516040830152606083015160608301526080830151608083015292915050565b5f8060408385031215615c60575f80fd5b505080516020909101519092909150565b815181526020808301516001600160a01b0316908201526040808301516001600160801b0390811691830191909152606092830151169181019190915260800190565b5f805f805f805f60e0888a031215615cca575f80fd5b8751615cd58161562a565b6020890151909750615ce6816157bc565b6040890151909650615cf781615933565b6060890151909550615d0881615933565b6080890151909450615d1981615933565b60a089015190935060ff81168114615d2f575f80fd5b60c08901519092508015158114615d44575f80fd5b8091505092959891949750929550565b5f60208284031215615d64575f80fd5b815161121d8161562a565b60208082526027908201527f44656c74614e65757472616c5661756c743a2063616c6c6572206973206e6f746040820152661035b2b2b832b960c91b606082015260800190565b60208082526025908201527f44656c74614e65757472616c5661756c743a20696e76616c6964207469636b2060408201526472616e676560d81b606082015260800190565b81810381811115610d4b57610d4b615a53565b8082028115828204841417610d4b57610d4b615a53565b634e487b7160e01b5f52601260045260245ffd5b5f82615e4757615e47615e25565b500490565b5f60208284031215615e5c575f80fd5b61121d82615b01565b81516001600160a01b0316815261016081016020830151615e9160208401826001600160a01b03169052565b506040830151615ea8604084018262ffffff169052565b506060830151615ebd606084018260020b9052565b506080830151615ed2608084018260020b9052565b5060a083015160a083015260c083015160c083015260e083015160e083015261010080840151818401525061012080840151615f18828501826001600160a01b03169052565b505061014092830151919092015290565b5f805f8060808587031215615f3c575f80fd5b84519350615f4c60208601615b1e565b6040860151606090960151949790965092505050565b81835281816020850137505f828201602090810191909152601f909101601f19169091010190565b5f61014060018060a01b03808816845280875116602085015280602088015116604085015280604088015116606085015280606088015116608085015250608086015160a084015260a086015160c084015260c086015160e084015280610100840152615ffc8184015f815260200190565b9050828103610120840152616012818587615f62565b979650505050505050565b634e487b7160e01b5f52602160045260245ffd5b5f60208284031215616041575f80fd5b815161121d816157bc565b5f8260020b8061605e5761605e615e25565b808360020b0791505092915050565b600282810b9082900b03627fffff198112627fffff82131715610d4b57610d4b615a53565b5f8160020b8360020b806160a8576160a8615e25565b627fffff1982145f19821416156160c1576160c1615a53565b90059392505050565b5f8260020b8260020b028060020b91508082146160e9576160e9615a53565b5092915050565b600281810b9083900b01627fffff8113627fffff1982121715610d4b57610d4b615a53565b600181815b8085111561614f57815f190482111561613557616135615a53565b8085161561614257918102915b93841c939080029061611a565b509250929050565b5f8261616557506001610d4b565b8161617157505f610d4b565b81600181146161875760028114616191576161ad565b6001915050610d4b565b60ff8411156161a2576161a2615a53565b50506001821b610d4b565b5060208310610133831016604e8410600b84101617156161d0575081810a610d4b565b6161da8383616115565b805f19048211156161ed576161ed615a53565b029392505050565b5f61121d60ff841683616157565b60ff8181168382160190811115610d4b57610d4b615a53565b805169ffffffffffffffffffff81168114615afc575f80fd5b5f805f805f60a08688031215616249575f80fd5b6162528661621c565b94506020860151935060408601519250606086015191506162756080870161621c565b90509295509295909350565b5f60ff83168061629357616293615e25565b8060ff84160691505092915050565b5f600160ff1b82016162b6576162b6615a53565b505f0390565b5f8160020b627fffff1981036162d4576162d4615a53565b5f0392915050565b5f826162ea576162ea615e25565b500690565b6001600160a01b038281168282160390808211156160e9576160e9615a5356fe9b779b17422d0df92223018b32b4d1fa46e071723d6817e2486d003becc55f00a2646970667358221220a11ec960326c649f3f42d89957978feb572399347f456982809ab05d6f75602264736f6c63430008180033","linkReferences":{}},"methodIdentifiers":{"ARBITRUM_SEPOLIA_CHAINID()":"5fc41f00","MAX_SLIPPAGE_TESTNET()":"1a6d2f47","MIN_DEPOSIT_TESTNET()":"e57e5ba0","TIMELOCK_TESTNET()":"77c2d42b","allowance(address,address)":"dd62ed3e","approve(address,uint256)":"095ea7b3","asset()":"38d52e0f","autoExit(uint256,uint8)":"99eaafb2","autoReenter(uint256,int24,int24)":"2bf999f5","balanceOf(address)":"70a08231","chainlinkPriceFeed()":"d8a2b7f0","collectFees()":"c8796572","convertToAssets(uint256)":"07a2d13a","convertToShares(uint256)":"c6e6f592","decimals()":"313ce567","deposit(uint256,address)":"6e553f65","emergencyExitToUSDC()":"5d978aae","entryFeeBps()":"578334ee","executeSwapVia1inch(address,address,uint256,address,bytes)":"8096f2c1","exitFeeBps()":"57b17a52","getMaxSlippage()":"adbfc312","getMinDeposit()":"0eaad3f1","getTimelockDuration()":"fdf2f312","highWaterMark()":"1e8410da","keeper()":"aced1661","keeperFeeBps()":"0eab7d63","lastManagementFeeTimestamp()":"9733fa80","managementFeeBps()":"3813c35a","maxDeposit(address)":"402d267d","maxMint(address)":"c63d75b6","maxOracleDelay()":"52f1edcc","maxOracleDeviationBps()":"4cf55042","maxRedeem(address)":"d905777e","maxSlippageBps()":"c4aa7395","maxWithdraw(address)":"ce96cb77","mint(uint256,address)":"94bf804d","name()":"06fdde03","onERC721Received(address,address,uint256,bytes)":"150b7a02","oneInchRouter()":"ac3af208","owner()":"8da5cb5b","pause()":"8456cb59","paused()":"5c975abb","performanceFeeBps()":"b9d4e879","positionManager()":"791b98bc","previewDeposit(uint256)":"ef8b30f7","previewMint(uint256)":"b3d7f6b9","previewRedeem(uint256)":"4cdad506","previewWithdraw(uint256)":"0a28a477","recordHedgeState(bytes32,uint64)":"a5e40ae7","redeem(uint256,address,address)":"ba087652","renounceOwnership()":"715018a6","setFees(uint16,uint16,uint16,uint16,uint16,uint16)":"a854104e","setKeeper(address)":"748747e6","setOneInchRouter(address)":"1d2dc7c3","setOracles(address,uint256,uint256)":"6eea9313","setRange(int24,int24)":"d0d17b64","setSlippageParams(uint256)":"046fc7f2","setTreasury(address)":"f0f44260","setUniswapConfig(address,address,address)":"25e445e4","swapFeeBps()":"2ffdaf89","swapRouter()":"c31c9c07","symbol()":"95d89b41","testnet_accrueManagementFee(uint256)":"2db1a2d8","testnet_emergencyWithdrawAll()":"142303aa","testnet_forceRebalance(uint256,int24,int24)":"68b2c476","testnet_getPositionInfo()":"25256c9f","testnet_resetHighWaterMark()":"0634a4c0","testnet_simulateRebalance(uint256)":"d927d348","tickLower()":"59c4f905","tickUpper()":"55b812a8","token0()":"0dfe1681","token1()":"d21220a7","tokenId()":"17d70f7c","totalAssets()":"01e1d114","totalSupply()":"18160ddd","transfer(address,uint256)":"a9059cbb","transferFrom(address,address,uint256)":"23b872dd","transferOwnership(address)":"f2fde38b","treasury()":"61d027b3","uniswapPool()":"bdd3d825","unpause()":"3f4ba83a","updateAccounting()":"494347e7","withdraw(uint256,address,address)":"b460af94"},"id":47}