{"abi":[{"type":"function","name":"burn","inputs":[{"name":"tokenId","type":"uint256","internalType":"uint256"}],"outputs":[],"stateMutability":"nonpayable"},{"type":"function","name":"collect","inputs":[{"name":"params","type":"tuple","internalType":"struct MockPositionManager.CollectParams","components":[{"name":"tokenId","type":"uint256","internalType":"uint256"},{"name":"recipient","type":"address","internalType":"address"},{"name":"amount0Max","type":"uint128","internalType":"uint128"},{"name":"amount1Max","type":"uint128","internalType":"uint128"}]}],"outputs":[{"name":"amount0","type":"uint256","internalType":"uint256"},{"name":"amount1","type":"uint256","internalType":"uint256"}],"stateMutability":"nonpayable"},{"type":"function","name":"decreaseLiquidity","inputs":[{"name":"params","type":"tuple","internalType":"struct MockPositionManager.DecreaseLiquidityParams","components":[{"name":"tokenId","type":"uint256","internalType":"uint256"},{"name":"liquidity","type":"uint128","internalType":"uint128"},{"name":"amount0Min","type":"uint256","internalType":"uint256"},{"name":"amount1Min","type":"uint256","internalType":"uint256"},{"name":"deadline","type":"uint256","internalType":"uint256"}]}],"outputs":[{"name":"amount0","type":"uint256","internalType":"uint256"},{"name":"amount1","type":"uint256","internalType":"uint256"}],"stateMutability":"nonpayable"},{"type":"function","name":"mint","inputs":[{"name":"params","type":"tuple","internalType":"struct MockPositionManager.MintParams","components":[{"name":"token0","type":"address","internalType":"address"},{"name":"token1","type":"address","internalType":"address"},{"name":"fee","type":"uint24","internalType":"uint24"},{"name":"tickLower","type":"int24","internalType":"int24"},{"name":"tickUpper","type":"int24","internalType":"int24"},{"name":"amount0Desired","type":"uint256","internalType":"uint256"},{"name":"amount1Desired","type":"uint256","internalType":"uint256"},{"name":"amount0Min","type":"uint256","internalType":"uint256"},{"name":"amount1Min","type":"uint256","internalType":"uint256"},{"name":"recipient","type":"address","internalType":"address"},{"name":"deadline","type":"uint256","internalType":"uint256"}]}],"outputs":[{"name":"tokenId","type":"uint256","internalType":"uint256"},{"name":"liquidity","type":"uint128","internalType":"uint128"},{"name":"amount0","type":"uint256","internalType":"uint256"},{"name":"amount1","type":"uint256","internalType":"uint256"}],"stateMutability":"nonpayable"},{"type":"function","name":"positions","inputs":[{"name":"","type":"uint256","internalType":"uint256"}],"outputs":[{"name":"nonce","type":"uint96","internalType":"uint96"},{"name":"operator","type":"address","internalType":"address"},{"name":"token0","type":"address","internalType":"address"},{"name":"token1","type":"address","internalType":"address"},{"name":"fee","type":"uint24","internalType":"uint24"},{"name":"tickLower","type":"int24","internalType":"int24"},{"name":"tickUpper","type":"int24","internalType":"int24"},{"name":"liquidity","type":"uint128","internalType":"uint128"},{"name":"feeGrowthInside0LastX128","type":"uint256","internalType":"uint256"},{"name":"feeGrowthInside1LastX128","type":"uint256","internalType":"uint256"},{"name":"tokensOwed0","type":"uint128","internalType":"uint128"},{"name":"tokensOwed1","type":"uint128","internalType":"uint128"}],"stateMutability":"view"}],"bytecode":{"object":"0x608060405260015f55348015610013575f80fd5b506106e0806100215f395ff3fe608060405234801561000f575f80fd5b5060043610610055575f3560e01c80630c49ccbe1461005957806342966c681461008657806388316456146100f157806399fbab881461012c578063fc6f7865146101ea575b5f80fd5b61006c6100673660046104d3565b6101fd565b604080519283526020830191909152015b60405180910390f35b6100ef6100943660046104e9565b5f908152600160208190526040822082815590810180546001600160a01b03191690556002810180546001600160e81b03191690556003810180546001600160801b0319169055600481018290556005810182905560060155565b005b6101046100ff366004610500565b610272565b604080519485526001600160801b03909316602085015291830152606082015260800161007d565b6101d261013a3660046104e9565b600160208190525f91825260409091208054918101546002808301546003840154600485015460058601546006909601546001600160601b038816976001600160a01b03600160601b909104811697968116969085169562ffffff600160a01b87041695600160b81b8104820b95600160d01b90910490910b936001600160801b039182169390929181811691600160801b9004168c565b60405161007d9c9b9a99989796959493929190610511565b61006c6101f83660046105b2565b610496565b80355f90815260016020908152604080832083929091610222919086019086016105c2565b6003820180545f9061023e9084906001600160801b0316610603565b92506101000a8154816001600160801b0302191690836001600160801b031602179055506103e892506103e8915050915091565b5f805481908190819081806102868361062a565b9091555060408051610180810182525f808252602080830191909152929650620f4240955060a0880135945060c0880135935091908201906102ca90880188610642565b6001600160a01b031681526020018660200160208101906102eb9190610642565b6001600160a01b031681526020016103096060880160408901610668565b62ffffff168152602001610323608088016060890161068a565b60020b815260200161033b60a088016080890161068a565b600290810b82526001600160801b038681166020808501919091525f60408086018290526060808701839052608080880184905260a09788018490528c84526001808652938390208951958a01516001600160601b03909616600160601b6001600160a01b03978816021781559289015193830180546001600160a01b031916948616949094179093558701519481018054928801519688015160c0890151969094166001600160b81b031990931692909217600160a01b62ffffff978816021765ffffffffffff60b81b1916600160b81b9387169390930262ffffff60d01b191692909217600160d01b95909416949094029290921790925560e08301516003820180546001600160801b0319169184169190911790556101008301516004820155610120830151600582015561014083015161016090930151928216600160801b93909216929092021760069091015592949193509190565b5f806104a860608401604085016105c2565b6001600160801b031691506104c360808401606085016105c2565b6001600160801b03169050915091565b5f60a082840312156104e3575f80fd5b50919050565b5f602082840312156104f9575f80fd5b5035919050565b5f61016082840312156104e3575f80fd5b6001600160601b038d1681526001600160a01b038c811660208301528b811660408301528a16606082015262ffffff89166080820152600288810b60a083015287900b60c082015261018081016001600160801b03871660e083015285610100830152846101208301526105916101408301856001600160801b03169052565b6001600160801b0383166101608301529d9c50505050505050505050505050565b5f608082840312156104e3575f80fd5b5f602082840312156105d2575f80fd5b81356001600160801b03811681146105e8575f80fd5b9392505050565b634e487b7160e01b5f52601160045260245ffd5b6001600160801b03828116828216039080821115610623576106236105ef565b5092915050565b5f6001820161063b5761063b6105ef565b5060010190565b5f60208284031215610652575f80fd5b81356001600160a01b03811681146105e8575f80fd5b5f60208284031215610678575f80fd5b813562ffffff811681146105e8575f80fd5b5f6020828403121561069a575f80fd5b81358060020b81146105e8575f80fdfea26469706673582212204ba75ede6ef64c9a92a536b483e52de33277dfc152c871afb88957479b8422f564736f6c63430008180033","linkReferences":{}},"methodIdentifiers":{"burn(uint256)":"42966c68","collect((uint256,address,uint128,uint128))":"fc6f7865","decreaseLiquidity((uint256,uint128,uint256,uint256,uint256))":"0c49ccbe","mint((address,address,uint24,int24,int24,uint256,uint256,uint256,uint256,address,uint256))":"88316456","positions(uint256)":"99fbab88"},"id":55}