{"abi":[{"type":"function","name":"swap","inputs":[{"name":"executor","type":"address","internalType":"address"},{"name":"desc","type":"tuple","internalType":"struct Mock1inchRouter.SwapDescription","components":[{"name":"srcToken","type":"address","internalType":"address"},{"name":"dstToken","type":"address","internalType":"address"},{"name":"srcReceiver","type":"address","internalType":"address payable"},{"name":"dstReceiver","type":"address","internalType":"address payable"},{"name":"amount","type":"uint256","internalType":"uint256"},{"name":"minReturnAmount","type":"uint256","internalType":"uint256"},{"name":"flags","type":"uint256","internalType":"uint256"}]},{"name":"permit","type":"bytes","internalType":"bytes"},{"name":"data","type":"bytes","internalType":"bytes"}],"outputs":[{"name":"returnAmount","type":"uint256","internalType":"uint256"},{"name":"spentAmount","type":"uint256","internalType":"uint256"}],"stateMutability":"payable"},{"type":"function","name":"unoswap","inputs":[{"name":"caller","type":"address","internalType":"address"},{"name":"desc","type":"tuple","internalType":"struct Mock1inchRouter.SwapDescription","components":[{"name":"srcToken","type":"address","internalType":"address"},{"name":"dstToken","type":"address","internalType":"address"},{"name":"srcReceiver","type":"address","internalType":"address payable"},{"name":"dstReceiver","type":"address","internalType":"address payable"},{"name":"amount","type":"uint256","internalType":"uint256"},{"name":"minReturnAmount","type":"uint256","internalType":"uint256"},{"name":"flags","type":"uint256","internalType":"uint256"}]},{"name":"data","type":"bytes","internalType":"bytes"}],"outputs":[{"name":"returnAmount","type":"uint256","internalType":"uint256"},{"name":"spentAmount","type":"uint256","internalType":"uint256"}],"stateMutability":"payable"}],"bytecode":{"object":"0x608060405234801561000f575f80fd5b506102168061001d5f395ff3fe608060405260043610610028575f3560e01c806311d1ccb51461002c57806312aa3caf1461005f575b5f80fd5b61004661003a3660046100f1565b50506080013591829150565b6040805192835260208301919091520160405180910390f35b61004661006d366004610151565b505050506080013591829150565b80356001600160a01b0381168114610091575f80fd5b919050565b5f60e082840312156100a6575f80fd5b50919050565b5f8083601f8401126100bc575f80fd5b50813567ffffffffffffffff8111156100d3575f80fd5b6020830191508360208285010111156100ea575f80fd5b9250929050565b5f805f806101208587031215610105575f80fd5b61010e8561007b565b935061011d8660208701610096565b925061010085013567ffffffffffffffff811115610139575f80fd5b610145878288016100ac565b95989497509550505050565b5f805f805f806101408789031215610167575f80fd5b6101708761007b565b955061017f8860208901610096565b945061010087013567ffffffffffffffff8082111561019c575f80fd5b6101a88a838b016100ac565b90965094506101208901359150808211156101c1575f80fd5b506101ce89828a016100ac565b979a969950949750929593949250505056fea2646970667358221220758e41a8df2858dc65303e598dbf9bdd9ead4893f2f4917f745a43ef288d2c4264736f6c63430008180033","linkReferences":{}},"methodIdentifiers":{"swap(address,(address,address,address,address,uint256,uint256,uint256),bytes,bytes)":"12aa3caf","unoswap(address,(address,address,address,address,uint256,uint256,uint256),bytes)":"11d1ccb5"},"id":56}