{"abi":[{"type":"constructor","inputs":[{"name":"_decimals","type":"uint8","internalType":"uint8"},{"name":"initialPrice","type":"int256","internalType":"int256"}],"stateMutability":"nonpayable"},{"type":"function","name":"decimals","inputs":[],"outputs":[{"name":"","type":"uint8","internalType":"uint8"}],"stateMutability":"view"},{"type":"function","name":"latestRoundData","inputs":[],"outputs":[{"name":"roundId","type":"uint80","internalType":"uint80"},{"name":"answer","type":"int256","internalType":"int256"},{"name":"startedAt","type":"uint256","internalType":"uint256"},{"name":"updatedAt","type":"uint256","internalType":"uint256"},{"name":"answeredInRound","type":"uint80","internalType":"uint80"}],"stateMutability":"view"},{"type":"function","name":"setPrice","inputs":[{"name":"newPrice","type":"int256","internalType":"int256"}],"outputs":[],"stateMutability":"nonpayable"},{"type":"function","name":"setUpdatedAt","inputs":[{"name":"timestamp","type":"uint256","internalType":"uint256"}],"outputs":[],"stateMutability":"nonpayable"}],"bytecode":{"object":"0x608060405234801561000f575f80fd5b5060405161023b38038061023b83398101604081905261002e91610063565b5f805460ff191660ff9390931692909217909155600190815542600255600380546001600160501b0319169091179055610094565b5f8060408385031215610074575f80fd5b825160ff81168114610084575f80fd5b6020939093015192949293505050565b61019a806100a15f395ff3fe608060405234801561000f575f80fd5b506004361061004a575f3560e01c80631ecc7d881461004e578063313ce56714610063578063f7a3080614610086578063feaf968c14610099575b5f80fd5b61006161005c36600461011c565b600255565b005b5f5461006f9060ff1681565b60405160ff90911681526020015b60405180910390f35b61006161009436600461011c565b6100d3565b600354600154600254604080516001600160501b03909416808552602085019390935242908401526060830152608082015260a00161007d565b600181905542600255600380546001600160501b0316905f6100f483610133565b91906101000a8154816001600160501b0302191690836001600160501b031602179055505050565b5f6020828403121561012c575f80fd5b5035919050565b5f6001600160501b0380831681810361015a57634e487b7160e01b5f52601160045260245ffd5b600101939250505056fea264697066735822122061e8d7ccce223cfac461683a6df63ae1b57b7b984f8cbf23a41a16198451b7fe64736f6c63430008180033","linkReferences":{}},"methodIdentifiers":{"decimals()":"313ce567","latestRoundData()":"feaf968c","setPrice(int256)":"f7a30806","setUpdatedAt(uint256)":"1ecc7d88"},"id":55}