{"abi":[{"type":"constructor","inputs":[{"name":"_asset","type":"address","internalType":"contract IERC20"},{"name":"_name","type":"string","internalType":"string"},{"name":"_symbol","type":"string","internalType":"string"},{"name":"_chainlinkFeed","type":"address","internalType":"address"},{"name":"_treasury","type":"address","internalType":"address"},{"name":"_positionManager","type":"address","internalType":"address"},{"name":"_swapRouter","type":"address","internalType":"address"},{"name":"_oneInchRouter","type":"address","internalType":"address"}],"stateMutability":"nonpayable"},{"type":"function","name":"allowance","inputs":[{"name":"owner","type":"address","internalType":"address"},{"name":"spender","type":"address","internalType":"address"}],"outputs":[{"name":"","type":"uint256","internalType":"uint256"}],"stateMutability":"view"},{"type":"function","name":"approve","inputs":[{"name":"spender","type":"address","internalType":"address"},{"name":"value","type":"uint256","internalType":"uint256"}],"outputs":[{"name":"","type":"bool","internalType":"bool"}],"stateMutability":"nonpayable"},{"type":"function","name":"asset","inputs":[],"outputs":[{"name":"","type":"address","internalType":"address"}],"stateMutability":"view"},{"type":"function","name":"autoExit","inputs":[{"name":"price","type":"uint256","internalType":"uint256"},{"name":"reason","type":"uint8","internalType":"enum DeltaNeutralVaultV1.ExitReason"}],"outputs":[],"stateMutability":"nonpayable"},{"type":"function","name":"autoReenter","inputs":[{"name":"price","type":"uint256","internalType":"uint256"},{"name":"_tickLower","type":"int24","internalType":"int24"},{"name":"_tickUpper","type":"int24","internalType":"int24"}],"outputs":[],"stateMutability":"nonpayable"},{"type":"function","name":"balanceOf","inputs":[{"name":"account","type":"address","internalType":"address"}],"outputs":[{"name":"","type":"uint256","internalType":"uint256"}],"stateMutability":"view"},{"type":"function","name":"chainlinkPriceFeed","inputs":[],"outputs":[{"name":"","type":"address","internalType":"contract AggregatorV3Interface"}],"stateMutability":"view"},{"type":"function","name":"collectFees","inputs":[],"outputs":[{"name":"amount0","type":"uint256","internalType":"uint256"},{"name":"amount1","type":"uint256","internalType":"uint256"}],"stateMutability":"nonpayable"},{"type":"function","name":"convertToAssets","inputs":[{"name":"shares","type":"uint256","internalType":"uint256"}],"outputs":[{"name":"","type":"uint256","internalType":"uint256"}],"stateMutability":"view"},{"type":"function","name":"convertToShares","inputs":[{"name":"assets","type":"uint256","internalType":"uint256"}],"outputs":[{"name":"","type":"uint256","internalType":"uint256"}],"stateMutability":"view"},{"type":"function","name":"decimals","inputs":[],"outputs":[{"name":"","type":"uint8","internalType":"uint8"}],"stateMutability":"view"},{"type":"function","name":"deposit","inputs":[{"name":"assets","type":"uint256","internalType":"uint256"},{"name":"receiver","type":"address","internalType":"address"}],"outputs":[{"name":"","type":"uint256","internalType":"uint256"}],"stateMutability":"nonpayable"},{"type":"function","name":"emergencyExitToUSDC","inputs":[],"outputs":[],"stateMutability":"nonpayable"},{"type":"function","name":"entryFeeBps","inputs":[],"outputs":[{"name":"","type":"uint16","internalType":"uint16"}],"stateMutability":"view"},{"type":"function","name":"executeSwapVia1inch","inputs":[{"name":"tokenIn","type":"address","internalType":"address"},{"name":"tokenOut","type":"address","internalType":"address"},{"name":"amountIn","type":"uint256","internalType":"uint256"},{"name":"executor","type":"address","internalType":"address"},{"name":"data","type":"bytes","internalType":"bytes"}],"outputs":[{"name":"amountOut","type":"uint256","internalType":"uint256"}],"stateMutability":"nonpayable"},{"type":"function","name":"exitFeeBps","inputs":[],"outputs":[{"name":"","type":"uint16","internalType":"uint16"}],"stateMutability":"view"},{"type":"function","name":"highWaterMark","inputs":[],"outputs":[{"name":"","type":"uint256","internalType":"uint256"}],"stateMutability":"view"},{"type":"function","name":"keeper","inputs":[],"outputs":[{"name":"","type":"address","internalType":"address"}],"stateMutability":"view"},{"type":"function","name":"keeperFeeBps","inputs":[],"outputs":[{"name":"","type":"uint16","internalType":"uint16"}],"stateMutability":"view"},{"type":"function","name":"lastManagementFeeTimestamp","inputs":[],"outputs":[{"name":"","type":"uint256","internalType":"uint256"}],"stateMutability":"view"},{"type":"function","name":"managementFeeBps","inputs":[],"outputs":[{"name":"","type":"uint16","internalType":"uint16"}],"stateMutability":"view"},{"type":"function","name":"maxDeposit","inputs":[{"name":"","type":"address","internalType":"address"}],"outputs":[{"name":"","type":"uint256","internalType":"uint256"}],"stateMutability":"view"},{"type":"function","name":"maxMint","inputs":[{"name":"","type":"address","internalType":"address"}],"outputs":[{"name":"","type":"uint256","internalType":"uint256"}],"stateMutability":"view"},{"type":"function","name":"maxOracleDelay","inputs":[],"outputs":[{"name":"","type":"uint256","internalType":"uint256"}],"stateMutability":"view"},{"type":"function","name":"maxOracleDeviationBps","inputs":[],"outputs":[{"name":"","type":"uint256","internalType":"uint256"}],"stateMutability":"view"},{"type":"function","name":"maxRedeem","inputs":[{"name":"owner","type":"address","internalType":"address"}],"outputs":[{"name":"","type":"uint256","internalType":"uint256"}],"stateMutability":"view"},{"type":"function","name":"maxSlippageBps","inputs":[],"outputs":[{"name":"","type":"uint256","internalType":"uint256"}],"stateMutability":"view"},{"type":"function","name":"maxWithdraw","inputs":[{"name":"owner","type":"address","internalType":"address"}],"outputs":[{"name":"","type":"uint256","internalType":"uint256"}],"stateMutability":"view"},{"type":"function","name":"mint","inputs":[{"name":"shares","type":"uint256","internalType":"uint256"},{"name":"receiver","type":"address","internalType":"address"}],"outputs":[{"name":"","type":"uint256","internalType":"uint256"}],"stateMutability":"nonpayable"},{"type":"function","name":"name","inputs":[],"outputs":[{"name":"","type":"string","internalType":"string"}],"stateMutability":"view"},{"type":"function","name":"onERC721Received","inputs":[{"name":"","type":"address","internalType":"address"},{"name":"","type":"address","internalType":"address"},{"name":"","type":"uint256","internalType":"uint256"},{"name":"","type":"bytes","internalType":"bytes"}],"outputs":[{"name":"","type":"bytes4","internalType":"bytes4"}],"stateMutability":"pure"},{"type":"function","name":"oneInchRouter","inputs":[],"outputs":[{"name":"","type":"address","internalType":"contract I1inchAggregator"}],"stateMutability":"view"},{"type":"function","name":"owner","inputs":[],"outputs":[{"name":"","type":"address","internalType":"address"}],"stateMutability":"view"},{"type":"function","name":"pause","inputs":[],"outputs":[],"stateMutability":"nonpayable"},{"type":"function","name":"paused","inputs":[],"outputs":[{"name":"","type":"bool","internalType":"bool"}],"stateMutability":"view"},{"type":"function","name":"performanceFeeBps","inputs":[],"outputs":[{"name":"","type":"uint16","internalType":"uint16"}],"stateMutability":"view"},{"type":"function","name":"positionManager","inputs":[],"outputs":[{"name":"","type":"address","internalType":"contract INonfungiblePositionManagerCompatible"}],"stateMutability":"view"},{"type":"function","name":"previewDeposit","inputs":[{"name":"assets","type":"uint256","internalType":"uint256"}],"outputs":[{"name":"","type":"uint256","internalType":"uint256"}],"stateMutability":"view"},{"type":"function","name":"previewMint","inputs":[{"name":"shares","type":"uint256","internalType":"uint256"}],"outputs":[{"name":"","type":"uint256","internalType":"uint256"}],"stateMutability":"view"},{"type":"function","name":"previewRedeem","inputs":[{"name":"shares","type":"uint256","internalType":"uint256"}],"outputs":[{"name":"","type":"uint256","internalType":"uint256"}],"stateMutability":"view"},{"type":"function","name":"previewWithdraw","inputs":[{"name":"assets","type":"uint256","internalType":"uint256"}],"outputs":[{"name":"","type":"uint256","internalType":"uint256"}],"stateMutability":"view"},{"type":"function","name":"recordHedgeState","inputs":[{"name":"stateHash","type":"bytes32","internalType":"bytes32"},{"name":"timestamp","type":"uint64","internalType":"uint64"}],"outputs":[],"stateMutability":"nonpayable"},{"type":"function","name":"redeem","inputs":[{"name":"shares","type":"uint256","internalType":"uint256"},{"name":"receiver","type":"address","internalType":"address"},{"name":"owner","type":"address","internalType":"address"}],"outputs":[{"name":"","type":"uint256","internalType":"uint256"}],"stateMutability":"nonpayable"},{"type":"function","name":"renounceOwnership","inputs":[],"outputs":[],"stateMutability":"nonpayable"},{"type":"function","name":"setFees","inputs":[{"name":"_performanceFeeBps","type":"uint16","internalType":"uint16"},{"name":"_managementFeeBps","type":"uint16","internalType":"uint16"},{"name":"_entryFeeBps","type":"uint16","internalType":"uint16"},{"name":"_exitFeeBps","type":"uint16","internalType":"uint16"},{"name":"_swapFeeBps","type":"uint16","internalType":"uint16"},{"name":"_keeperFeeBps","type":"uint16","internalType":"uint16"}],"outputs":[],"stateMutability":"nonpayable"},{"type":"function","name":"setKeeper","inputs":[{"name":"_keeper","type":"address","internalType":"address"}],"outputs":[],"stateMutability":"nonpayable"},{"type":"function","name":"setOneInchRouter","inputs":[{"name":"_oneInchRouter","type":"address","internalType":"address"}],"outputs":[],"stateMutability":"nonpayable"},{"type":"function","name":"setOracles","inputs":[{"name":"_priceFeed","type":"address","internalType":"address"},{"name":"_maxDeviationBps","type":"uint256","internalType":"uint256"},{"name":"_maxDelay","type":"uint256","internalType":"uint256"}],"outputs":[],"stateMutability":"nonpayable"},{"type":"function","name":"setRange","inputs":[{"name":"_tickLower","type":"int24","internalType":"int24"},{"name":"_tickUpper","type":"int24","internalType":"int24"}],"outputs":[],"stateMutability":"nonpayable"},{"type":"function","name":"setSlippageParams","inputs":[{"name":"_maxSlippageBps","type":"uint256","internalType":"uint256"}],"outputs":[],"stateMutability":"nonpayable"},{"type":"function","name":"setTreasury","inputs":[{"name":"_treasury","type":"address","internalType":"address"}],"outputs":[],"stateMutability":"nonpayable"},{"type":"function","name":"setUniswapConfig","inputs":[{"name":"_pool","type":"address","internalType":"address"},{"name":"_positionManager","type":"address","internalType":"address"},{"name":"_swapRouter","type":"address","internalType":"address"}],"outputs":[],"stateMutability":"nonpayable"},{"type":"function","name":"swapFeeBps","inputs":[],"outputs":[{"name":"","type":"uint16","internalType":"uint16"}],"stateMutability":"view"},{"type":"function","name":"swapRouter","inputs":[],"outputs":[{"name":"","type":"address","internalType":"contract ISwapRouter"}],"stateMutability":"view"},{"type":"function","name":"symbol","inputs":[],"outputs":[{"name":"","type":"string","internalType":"string"}],"stateMutability":"view"},{"type":"function","name":"tickLower","inputs":[],"outputs":[{"name":"","type":"int24","internalType":"int24"}],"stateMutability":"view"},{"type":"function","name":"tickUpper","inputs":[],"outputs":[{"name":"","type":"int24","internalType":"int24"}],"stateMutability":"view"},{"type":"function","name":"token0","inputs":[],"outputs":[{"name":"","type":"address","internalType":"address"}],"stateMutability":"view"},{"type":"function","name":"token1","inputs":[],"outputs":[{"name":"","type":"address","internalType":"address"}],"stateMutability":"view"},{"type":"function","name":"tokenId","inputs":[],"outputs":[{"name":"","type":"uint256","internalType":"uint256"}],"stateMutability":"view"},{"type":"function","name":"totalAssets","inputs":[],"outputs":[{"name":"","type":"uint256","internalType":"uint256"}],"stateMutability":"view"},{"type":"function","name":"totalSupply","inputs":[],"outputs":[{"name":"","type":"uint256","internalType":"uint256"}],"stateMutability":"view"},{"type":"function","name":"transfer","inputs":[{"name":"to","type":"address","internalType":"address"},{"name":"value","type":"uint256","internalType":"uint256"}],"outputs":[{"name":"","type":"bool","internalType":"bool"}],"stateMutability":"nonpayable"},{"type":"function","name":"transferFrom","inputs":[{"name":"from","type":"address","internalType":"address"},{"name":"to","type":"address","internalType":"address"},{"name":"value","type":"uint256","internalType":"uint256"}],"outputs":[{"name":"","type":"bool","internalType":"bool"}],"stateMutability":"nonpayable"},{"type":"function","name":"transferOwnership","inputs":[{"name":"newOwner","type":"address","internalType":"address"}],"outputs":[],"stateMutability":"nonpayable"},{"type":"function","name":"treasury","inputs":[],"outputs":[{"name":"","type":"address","internalType":"address"}],"stateMutability":"view"},{"type":"function","name":"uniswapPool","inputs":[],"outputs":[{"name":"","type":"address","internalType":"contract IUniswapV3Pool"}],"stateMutability":"view"},{"type":"function","name":"unpause","inputs":[],"outputs":[],"stateMutability":"nonpayable"},{"type":"function","name":"updateAccounting","inputs":[],"outputs":[],"stateMutability":"nonpayable"},{"type":"function","name":"withdraw","inputs":[{"name":"assets","type":"uint256","internalType":"uint256"},{"name":"receiver","type":"address","internalType":"address"},{"name":"owner","type":"address","internalType":"address"}],"outputs":[{"name":"","type":"uint256","internalType":"uint256"}],"stateMutability":"nonpayable"},{"type":"event","name":"AccountingUpdated","inputs":[{"name":"totalAssets","type":"uint256","indexed":false,"internalType":"uint256"},{"name":"totalShares","type":"uint256","indexed":false,"internalType":"uint256"}],"anonymous":false},{"type":"event","name":"Approval","inputs":[{"name":"owner","type":"address","indexed":true,"internalType":"address"},{"name":"spender","type":"address","indexed":true,"internalType":"address"},{"name":"value","type":"uint256","indexed":false,"internalType":"uint256"}],"anonymous":false},{"type":"event","name":"AutoExitExecuted","inputs":[{"name":"price","type":"uint256","indexed":true,"internalType":"uint256"},{"name":"reason","type":"uint8","indexed":true,"internalType":"enum DeltaNeutralVaultV1.ExitReason"},{"name":"totalAssets","type":"uint256","indexed":false,"internalType":"uint256"},{"name":"profit","type":"uint256","indexed":false,"internalType":"uint256"}],"anonymous":false},{"type":"event","name":"AutoReenterExecuted","inputs":[{"name":"price","type":"uint256","indexed":true,"internalType":"uint256"},{"name":"tickLower","type":"int24","indexed":false,"internalType":"int24"},{"name":"tickUpper","type":"int24","indexed":false,"internalType":"int24"},{"name":"totalAssets","type":"uint256","indexed":false,"internalType":"uint256"}],"anonymous":false},{"type":"event","name":"Deposit","inputs":[{"name":"sender","type":"address","indexed":true,"internalType":"address"},{"name":"owner","type":"address","indexed":true,"internalType":"address"},{"name":"assets","type":"uint256","indexed":false,"internalType":"uint256"},{"name":"shares","type":"uint256","indexed":false,"internalType":"uint256"}],"anonymous":false},{"type":"event","name":"EmergencyExitExecuted","inputs":[{"name":"totalAssets","type":"uint256","indexed":false,"internalType":"uint256"}],"anonymous":false},{"type":"event","name":"EntryFeeCharged","inputs":[{"name":"assets","type":"uint256","indexed":false,"internalType":"uint256"},{"name":"fee","type":"uint256","indexed":false,"internalType":"uint256"}],"anonymous":false},{"type":"event","name":"ExitFeeCharged","inputs":[{"name":"assets","type":"uint256","indexed":false,"internalType":"uint256"},{"name":"fee","type":"uint256","indexed":false,"internalType":"uint256"}],"anonymous":false},{"type":"event","name":"FeesCollected","inputs":[{"name":"amount0","type":"uint256","indexed":false,"internalType":"uint256"},{"name":"amount1","type":"uint256","indexed":false,"internalType":"uint256"}],"anonymous":false},{"type":"event","name":"FeesUpdated","inputs":[{"name":"performanceFeeBps","type":"uint16","indexed":false,"internalType":"uint16"},{"name":"managementFeeBps","type":"uint16","indexed":false,"internalType":"uint16"},{"name":"entryFeeBps","type":"uint16","indexed":false,"internalType":"uint16"},{"name":"exitFeeBps","type":"uint16","indexed":false,"internalType":"uint16"},{"name":"swapFeeBps","type":"uint16","indexed":false,"internalType":"uint16"},{"name":"keeperFeeBps","type":"uint16","indexed":false,"internalType":"uint16"}],"anonymous":false},{"type":"event","name":"HedgeStateRecorded","inputs":[{"name":"stateHash","type":"bytes32","indexed":true,"internalType":"bytes32"},{"name":"timestamp","type":"uint64","indexed":false,"internalType":"uint64"}],"anonymous":false},{"type":"event","name":"KeeperUpdated","inputs":[{"name":"oldKeeper","type":"address","indexed":true,"internalType":"address"},{"name":"newKeeper","type":"address","indexed":true,"internalType":"address"}],"anonymous":false},{"type":"event","name":"ManagementFeeCharged","inputs":[{"name":"fee","type":"uint256","indexed":false,"internalType":"uint256"},{"name":"shares","type":"uint256","indexed":false,"internalType":"uint256"}],"anonymous":false},{"type":"event","name":"OracleUpdated","inputs":[{"name":"priceFeed","type":"address","indexed":true,"internalType":"address"},{"name":"maxDeviationBps","type":"uint256","indexed":false,"internalType":"uint256"},{"name":"maxDelay","type":"uint256","indexed":false,"internalType":"uint256"}],"anonymous":false},{"type":"event","name":"OwnershipTransferred","inputs":[{"name":"previousOwner","type":"address","indexed":true,"internalType":"address"},{"name":"newOwner","type":"address","indexed":true,"internalType":"address"}],"anonymous":false},{"type":"event","name":"Paused","inputs":[{"name":"account","type":"address","indexed":false,"internalType":"address"}],"anonymous":false},{"type":"event","name":"PerformanceFeeCharged","inputs":[{"name":"profit","type":"uint256","indexed":false,"internalType":"uint256"},{"name":"fee","type":"uint256","indexed":false,"internalType":"uint256"}],"anonymous":false},{"type":"event","name":"PositionClosed","inputs":[{"name":"tokenId","type":"uint256","indexed":true,"internalType":"uint256"},{"name":"amount0","type":"uint256","indexed":false,"internalType":"uint256"},{"name":"amount1","type":"uint256","indexed":false,"internalType":"uint256"},{"name":"fees0","type":"uint256","indexed":false,"internalType":"uint256"},{"name":"fees1","type":"uint256","indexed":false,"internalType":"uint256"}],"anonymous":false},{"type":"event","name":"PositionMinted","inputs":[{"name":"tokenId","type":"uint256","indexed":true,"internalType":"uint256"},{"name":"liquidity","type":"uint128","indexed":false,"internalType":"uint128"},{"name":"amount0","type":"uint256","indexed":false,"internalType":"uint256"},{"name":"amount1","type":"uint256","indexed":false,"internalType":"uint256"}],"anonymous":false},{"type":"event","name":"RangeUpdated","inputs":[{"name":"tickLower","type":"int24","indexed":false,"internalType":"int24"},{"name":"tickUpper","type":"int24","indexed":false,"internalType":"int24"}],"anonymous":false},{"type":"event","name":"SlippageParamsUpdated","inputs":[{"name":"maxSlippageBps","type":"uint256","indexed":false,"internalType":"uint256"}],"anonymous":false},{"type":"event","name":"SwapExecuted","inputs":[{"name":"tokenIn","type":"address","indexed":true,"internalType":"address"},{"name":"tokenOut","type":"address","indexed":true,"internalType":"address"},{"name":"amountIn","type":"uint256","indexed":false,"internalType":"uint256"},{"name":"amountOut","type":"uint256","indexed":false,"internalType":"uint256"}],"anonymous":false},{"type":"event","name":"SwapFeeApplied","inputs":[{"name":"amountIn","type":"uint256","indexed":false,"internalType":"uint256"},{"name":"fee","type":"uint256","indexed":false,"internalType":"uint256"}],"anonymous":false},{"type":"event","name":"Transfer","inputs":[{"name":"from","type":"address","indexed":true,"internalType":"address"},{"name":"to","type":"address","indexed":true,"internalType":"address"},{"name":"value","type":"uint256","indexed":false,"internalType":"uint256"}],"anonymous":false},{"type":"event","name":"TreasuryUpdated","inputs":[{"name":"oldTreasury","type":"address","indexed":true,"internalType":"address"},{"name":"newTreasury","type":"address","indexed":true,"internalType":"address"}],"anonymous":false},{"type":"event","name":"UniswapConfigUpdated","inputs":[{"name":"pool","type":"address","indexed":true,"internalType":"address"},{"name":"positionManager","type":"address","indexed":true,"internalType":"address"},{"name":"swapRouter","type":"address","indexed":true,"internalType":"address"}],"anonymous":false},{"type":"event","name":"Unpaused","inputs":[{"name":"account","type":"address","indexed":false,"internalType":"address"}],"anonymous":false},{"type":"event","name":"Withdraw","inputs":[{"name":"sender","type":"address","indexed":true,"internalType":"address"},{"name":"receiver","type":"address","indexed":true,"internalType":"address"},{"name":"owner","type":"address","indexed":true,"internalType":"address"},{"name":"assets","type":"uint256","indexed":false,"internalType":"uint256"},{"name":"shares","type":"uint256","indexed":false,"internalType":"uint256"}],"anonymous":false},{"type":"error","name":"ERC20InsufficientAllowance","inputs":[{"name":"spender","type":"address","internalType":"address"},{"name":"allowance","type":"uint256","internalType":"uint256"},{"name":"needed","type":"uint256","internalType":"uint256"}]},{"type":"error","name":"ERC20InsufficientBalance","inputs":[{"name":"sender","type":"address","internalType":"address"},{"name":"balance","type":"uint256","internalType":"uint256"},{"name":"needed","type":"uint256","internalType":"uint256"}]},{"type":"error","name":"ERC20InvalidApprover","inputs":[{"name":"approver","type":"address","internalType":"address"}]},{"type":"error","name":"ERC20InvalidReceiver","inputs":[{"name":"receiver","type":"address","internalType":"address"}]},{"type":"error","name":"ERC20InvalidSender","inputs":[{"name":"sender","type":"address","internalType":"address"}]},{"type":"error","name":"ERC20InvalidSpender","inputs":[{"name":"spender","type":"address","internalType":"address"}]},{"type":"error","name":"ERC4626ExceededMaxDeposit","inputs":[{"name":"receiver","type":"address","internalType":"address"},{"name":"assets","type":"uint256","internalType":"uint256"},{"name":"max","type":"uint256","internalType":"uint256"}]},{"type":"error","name":"ERC4626ExceededMaxMint","inputs":[{"name":"receiver","type":"address","internalType":"address"},{"name":"shares","type":"uint256","internalType":"uint256"},{"name":"max","type":"uint256","internalType":"uint256"}]},{"type":"error","name":"ERC4626ExceededMaxRedeem","inputs":[{"name":"owner","type":"address","internalType":"address"},{"name":"shares","type":"uint256","internalType":"uint256"},{"name":"max","type":"uint256","internalType":"uint256"}]},{"type":"error","name":"ERC4626ExceededMaxWithdraw","inputs":[{"name":"owner","type":"address","internalType":"address"},{"name":"assets","type":"uint256","internalType":"uint256"},{"name":"max","type":"uint256","internalType":"uint256"}]},{"type":"error","name":"EnforcedPause","inputs":[]},{"type":"error","name":"ExpectedPause","inputs":[]},{"type":"error","name":"OwnableInvalidOwner","inputs":[{"name":"owner","type":"address","internalType":"address"}]},{"type":"error","name":"OwnableUnauthorizedAccount","inputs":[{"name":"account","type":"address","internalType":"address"}]},{"type":"error","name":"ReentrancyGuardReentrantCall","inputs":[]},{"type":"error","name":"SafeERC20FailedOperation","inputs":[{"name":"token","type":"address","internalType":"address"}]}],"bytecode":{"object":"0x60c060405234801562000010575f80fd5b506040516200596d3803806200596d833981016040819052620000339162000585565b338888886003620000458382620006f0565b506004620000548282620006f0565b5050505f806200006a836200038f60201b60201c565b91509150816200007c5760126200007e565b805b60ff1660a05250506001600160a01b039081166080528116620000bb57604051631e4fbdf760e01b81525f60048201526024015b60405180910390fd5b620000c68162000428565b5060017f9b779b17422d0df92223018b32b4d1fa46e071723d6817e2486d003becc55f00556001600160a01b038416620001565760405162461bcd60e51b815260206004820152602a60248201527f44656c74614e65757472616c5661756c743a2074726561737572792063616e6e6044820152696f74206265207a65726f60b01b6064820152608401620000b2565b6001600160a01b038516620001c75760405162461bcd60e51b815260206004820152603060248201527f44656c74614e65757472616c5661756c743a20636861696e6c696e6b2066656560448201526f642063616e6e6f74206265207a65726f60801b6064820152608401620000b2565b6001600160a01b0383166200023a5760405162461bcd60e51b815260206004820152603260248201527f44656c74614e65757472616c5661756c743a20706f736974696f6e206d616e616044820152716765722063616e6e6f74206265207a65726f60701b6064820152608401620000b2565b6001600160a01b038216620002a85760405162461bcd60e51b815260206004820152602d60248201527f44656c74614e65757472616c5661756c743a207377617020726f75746572206360448201526c616e6e6f74206265207a65726f60981b6064820152608401620000b2565b6001600160a01b038116620003175760405162461bcd60e51b815260206004820152602e60248201527f44656c74614e65757472616c5661756c743a2031696e636820726f757465722060448201526d63616e6e6f74206265207a65726f60901b6064820152608401620000b2565b600780546001600160a01b03199081166001600160a01b039687161790915560088054821696861696909617909555600c8054861693851693909317909255600d80548516918416919091179055600e80549093169116179055505042601255506101f4600955610e10600a556064601455620007bc565b5f80806200039c60405190565b6040805160048152602481019091526020810180516001600160e01b0390811663313ce56760e01b179091529192505f918291620003de918891906200047916565b509092509050620003ee83604052565b818015620003fd575060203d10155b80156200040b575060ff8111155b62000418575f806200041c565b6001815b94509450505050915091565b600580546001600160a01b038381166001600160a01b0319831681179093556040519116919082907f8be0079c531659141344cd1fd0a4f28419497f9722a3daafe3b4186f6b6457e0905f90a35050565b5f805f60405f855160208701885afa92505f51915060205190509250925092565b6001600160a01b0381168114620004af575f80fd5b50565b634e487b7160e01b5f52604160045260245ffd5b5f82601f830112620004d6575f80fd5b81516001600160401b0380821115620004f357620004f3620004b2565b604051601f8301601f19908116603f011681019082821181831017156200051e576200051e620004b2565b81604052838152602092508660208588010111156200053b575f80fd5b5f91505b838210156200055e57858201830151818301840152908201906200053f565b5f602085830101528094505050505092915050565b805162000580816200049a565b919050565b5f805f805f805f80610100898b0312156200059e575f80fd5b8851620005ab816200049a565b60208a01519098506001600160401b0380821115620005c8575f80fd5b620005d68c838d01620004c6565b985060408b0151915080821115620005ec575f80fd5b50620005fb8b828c01620004c6565b96505060608901516200060e816200049a565b60808a015190955062000621816200049a565b60a08a015190945062000634816200049a565b60c08a015190935062000647816200049a565b91506200065760e08a0162000573565b90509295985092959890939650565b600181811c908216806200067b57607f821691505b6020821081036200069a57634e487b7160e01b5f52602260045260245ffd5b50919050565b601f821115620006eb57805f5260205f20601f840160051c81016020851015620006c75750805b601f840160051c820191505b81811015620006e8575f8155600101620006d3565b50505b505050565b81516001600160401b038111156200070c576200070c620004b2565b62000724816200071d845462000666565b84620006a0565b602080601f8311600181146200075a575f8415620007425750858301515b5f19600386901b1c1916600185901b178555620007b4565b5f85815260208120601f198616915b828110156200078a5788860151825594840194600190910190840162000769565b5085821015620007a857878501515f19600388901b60f8161c191681555b505060018460011b0185555b505050505050565b60805160a05161518f620007de5f395f612cd101525f611042015261518f5ff3fe608060405234801561000f575f80fd5b5060043610610401575f3560e01c806370a0823111610216578063b460af941161012a578063ce96cb77116100b4578063d905777e11610084578063d905777e146108cf578063dd62ed3e146108e2578063ef8b30f714610853578063f0f442601461091a578063f2fde38b1461092d575f80fd5b8063ce96cb7714610883578063d0d17b6414610896578063d21220a7146108a9578063d8a2b7f0146108bc575f80fd5b8063c31c9c07116100fa578063c31c9c0714610837578063c4aa73951461084a578063c63d75b6146105d8578063c6e6f59214610853578063c879657214610866575f80fd5b8063b460af94146107e9578063b9d4e879146107fc578063ba08765214610811578063bdd3d82514610824575f80fd5b806395d89b41116101ab578063a854104e1161017b578063a854104e1461078a578063a9059cbb1461079d578063ac3af208146107b0578063aced1661146107c3578063b3d7f6b9146107d6575f80fd5b806395d89b41146107535780639733fa801461075b57806399eaafb214610764578063a5e40ae714610777575f80fd5b80638096f2c1116101e65780638096f2c1146107145780638456cb59146107275780638da5cb5b1461072f57806394bf804d14610740575f80fd5b806370a08231146106be578063715018a6146106e6578063748747e6146106ee578063791b98bc14610701575f80fd5b8063313ce5671161031857806355b812a8116102a25780635c975abb116102725780635c975abb1461066b5780635d978aae1461067d57806361d027b3146106855780636e553f65146106985780636eea9313146106ab575f80fd5b806355b812a814610606578063578334ee1461062d57806357b17a521461064257806359c4f90514610657575f80fd5b8063402d267d116102e8578063402d267d146105d8578063494347e7146105ec5780634cdad5061461044a5780634cf55042146105f457806352f1edcc146105fd575f80fd5b8063313ce567146105995780633813c35a146105b357806338d52e0f146105c85780633f4ba83a146105d0575f80fd5b8063150b7a02116103995780631e8410da116103695780631e8410da1461054257806323b872dd1461054b57806325e445e41461055e5780632bf999f5146105715780632ffdaf8914610584575f80fd5b8063150b7a02146104e657806317d70f7c1461051e57806318160ddd146105275780631d2dc7c31461052f575f80fd5b8063095ea7b3116103d4578063095ea7b31461045d5780630a28a477146104805780630dfe1681146104935780630eab7d63146104be575f80fd5b806301e1d11414610405578063046fc7f21461042057806306fdde031461043557806307a2d13a1461044a575b5f80fd5b61040d610940565b6040519081526020015b60405180910390f35b61043361042e366004614519565b610a33565b005b61043d610ad9565b6040516104179190614530565b61040d610458366004614519565b610b69565b61047061046b366004614590565b610b7a565b6040519015158152602001610417565b61040d61048e366004614519565b610b91565b6010546104a6906001600160a01b031681565b6040516001600160a01b039091168152602001610417565b6007546104d390600160f01b900461ffff1681565b60405161ffff9091168152602001610417565b6105056104f43660046145ff565b630a85bd0160e11b95945050505050565b6040516001600160e01b03199091168152602001610417565b61040d600f5481565b60025461040d565b61043361053d36600461466d565b610b9d565b61040d60135481565b610470610559366004614688565b610c34565b61043361056c3660046146c6565b610c59565b61043361057f36600461471c565b610f10565b6007546104d390600160e01b900461ffff1681565b6105a1611032565b60405160ff9091168152602001610417565b6007546104d390600160b01b900461ffff1681565b6104a6611040565b610433611064565b61040d6105e636600461466d565b505f1990565b610433611076565b61040d60095481565b61040d600a5481565b600e5461061a90600160b81b900460020b81565b60405160029190910b8152602001610417565b6007546104d390600160c01b900461ffff1681565b6007546104d390600160d01b900461ffff1681565b600e5461061a90600160a01b900460020b81565b600554600160a01b900460ff16610470565b6104336110ef565b6007546104a6906001600160a01b031681565b61040d6106a6366004614750565b61116a565b6104336106b936600461477e565b611223565b61040d6106cc36600461466d565b6001600160a01b03165f9081526020819052604090205490565b610433611360565b6104336106fc36600461466d565b611371565b600c546104a6906001600160a01b031681565b61040d6107223660046147b0565b611431565b610433611635565b6005546001600160a01b03166104a6565b61040d61074e366004614750565b611645565b61043d611660565b61040d60125481565b610433610772366004614830565b61166f565b610433610785366004614856565b611762565b610433610798366004614894565b611835565b6104706107ab366004614590565b611bc1565b600e546104a6906001600160a01b031681565b6006546104a6906001600160a01b031681565b61040d6107e4366004614519565b611bce565b61040d6107f7366004614912565b611bda565b6007546104d390600160a01b900461ffff1681565b61040d61081f366004614912565b611cb2565b600b546104a6906001600160a01b031681565b600d546104a6906001600160a01b031681565b61040d60145481565b61040d610861366004614519565b611d5d565b61086e611d68565b60408051928352602083019190915201610417565b61040d61089136600461466d565b611edf565b6104336108a4366004614936565b611eec565b6011546104a6906001600160a01b031681565b6008546104a6906001600160a01b031681565b61040d6108dd36600461466d565b6120d0565b61040d6108f0366004614962565b6001600160a01b039182165f90815260016020908152604080832093909416825291909152205490565b61043361092836600461466d565b6120ed565b61043361093b36600461466d565b6121af565b5f8061094a611040565b6040516370a0823160e01b81523060048201526001600160a01b0391909116906370a0823190602401602060405180830381865afa15801561098e573d5f803e3d5ffd5b505050506040513d601f19601f820116820180604052508101906109b2919061498e565b9050600f545f036109c257919050565b5f806109cc6121ec565b601054919350915083906001600160a01b03166109e7611040565b6001600160a01b031603610a12576109ff83826149b9565b9050610a0b82826149b9565b9050610a2b565b610a1c82826149b9565b9050610a2883826149b9565b90505b949350505050565b610a3b6122a1565b612710811115610a9e5760405162461bcd60e51b8152602060048201526024808201527f44656c74614e65757472616c5661756c743a20736c69707061676520746f6f206044820152630d0d2ced60e31b60648201526084015b60405180910390fd5b60148190556040518181527f21ee8810ab5e8c6d05867f57e49a24c63cb1a61a94aaf2593165d28e4dec7afd9060200160405180910390a150565b606060038054610ae8906149cc565b80601f0160208091040260200160405190810160405280929190818152602001828054610b14906149cc565b8015610b5f5780601f10610b3657610100808354040283529160200191610b5f565b820191905f5260205f20905b815481529060010190602001808311610b4257829003601f168201915b5050505050905090565b5f610b74825f6122ce565b92915050565b5f33610b87818585612306565b5060019392505050565b5f610b74826001612313565b610ba56122a1565b6001600160a01b038116610c125760405162461bcd60e51b815260206004820152602e60248201527f44656c74614e65757472616c5661756c743a2031696e636820726f757465722060448201526d63616e6e6f74206265207a65726f60901b6064820152608401610a95565b600e80546001600160a01b0319166001600160a01b0392909216919091179055565b5f33610c41858285612342565b610c4c8585856123be565b60019150505b9392505050565b610c616122a1565b6001600160a01b038316610cc65760405162461bcd60e51b815260206004820152602660248201527f44656c74614e65757472616c5661756c743a20706f6f6c2063616e6e6f74206260448201526565207a65726f60d01b6064820152608401610a95565b6001600160a01b038216610d375760405162461bcd60e51b815260206004820152603260248201527f44656c74614e65757472616c5661756c743a20706f736974696f6e206d616e616044820152716765722063616e6e6f74206265207a65726f60701b6064820152608401610a95565b6001600160a01b038116610da35760405162461bcd60e51b815260206004820152602d60248201527f44656c74614e65757472616c5661756c743a207377617020726f75746572206360448201526c616e6e6f74206265207a65726f60981b6064820152608401610a95565b600b80546001600160a01b038086166001600160a01b03199283168117909355600c8054868316908416179055600d80549185169190921617905560408051630dfe168160e01b81529051630dfe1681916004808201926020929091908290030181865afa158015610e17573d5f803e3d5ffd5b505050506040513d601f19601f82011682018060405250810190610e3b9190614a0e565b601080546001600160a01b0319166001600160a01b03928316179055600b546040805163d21220a760e01b81529051919092169163d21220a79160048083019260209291908290030181865afa158015610e97573d5f803e3d5ffd5b505050506040513d601f19601f82011682018060405250810190610ebb9190614a0e565b601180546001600160a01b0319166001600160a01b039283161790556040518282169184811691908616907f2d2ef1c673f4132fe59d801ab0172c963d940023c0366ec147ecf60143429119905f90a4505050565b6006546001600160a01b03163314610f3a5760405162461bcd60e51b8152600401610a9590614a29565b610f4261241b565b610f4a612446565b8060020b8260020b12610f6f5760405162461bcd60e51b8152600401610a9590614a70565b610f7883612461565b610f80612595565b600e805462ffffff838116600160b81b0262ffffff60b81b19918616600160a01b029190911665ffffffffffff60a01b19909216919091171790555f610fc4610940565b9050610fce612686565b60408051600285810b825284900b602082015290810182905284907ff4f6f7d6917112b1ff527190c5b914399bcabfa39858e1b8e6dfddc7be1fd50f9060600160405180910390a25061102d60015f8051602061513a83398151915255565b505050565b5f61103b612cca565b905090565b7f000000000000000000000000000000000000000000000000000000000000000090565b61106c6122a1565b611074612cf5565b565b6006546001600160a01b031633146110a05760405162461bcd60e51b8152600401610a9590614a29565b6110a8612595565b7fb4169d2da74b9baf2a80c53f7e59bc5f910a1761e9649972453e57e6817431456110d1610940565b600254604080519283526020830191909152015b60405180910390a1565b6110f76122a1565b6110ff612d45565b611107612446565b61110f612d6f565b5f611118610940565b90507f2c95c6b289f217952f220749ba7a0397f846b8d4dbdafa5923aa7cc368ff55eb8160405161114b91815260200190565b60405180910390a15061107460015f8051602061513a83398151915255565b5f61117361241b565b61117b612446565b611183612595565b6111a2333085611191611040565b6001600160a01b0316929190613172565b5f6111ac846131a8565b90505f6111b882611d5d565b90506111c48482613258565b60408051868152602081018390526001600160a01b0386169133917fdcbc1c05240f31ff3ad067ef1ee35ce4997762752e3a095284754544f4c709d7910160405180910390a3915050610b7460015f8051602061513a83398151915255565b61122b6122a1565b6001600160a01b0383166112965760405162461bcd60e51b815260206004820152602c60248201527f44656c74614e65757472616c5661756c743a207072696365206665656420636160448201526b6e6e6f74206265207a65726f60a01b6064820152608401610a95565b6127108211156112fa5760405162461bcd60e51b815260206004820152602960248201527f44656c74614e65757472616c5661756c743a206d617820646576696174696f6e604482015268040e8dede40d0d2ced60bb1b6064820152608401610a95565b600880546001600160a01b0319166001600160a01b0385169081179091556009839055600a82905560408051848152602081018490527fac660c5421eba7ba5bebd78e9af74472393957efa70c03a6ad5b0b7127ac35c3910160405180910390a2505050565b6113686122a1565b6110745f61328c565b6113796122a1565b6001600160a01b0381166113e05760405162461bcd60e51b815260206004820152602860248201527f44656c74614e65757472616c5661756c743a206b65657065722063616e6e6f74604482015267206265207a65726f60c01b6064820152608401610a95565b600680546001600160a01b038381166001600160a01b0319831681179093556040519116919082907f53d3703fe259def57584466f32d1b94c30278008c683c21b04501c4966f13a69905f90a35050565b6006545f906001600160a01b0316331461145d5760405162461bcd60e51b8152600401610a9590614a29565b611465612446565b845f0361147357505f611615565b5f61147d866132dd565b90505f611488613369565b5090505f670de0b6b3a764000061149f8385614ab5565b6114a99190614ae0565b90505f6127106014546127106114bf9190614af3565b6114c99084614ab5565b6114d39190614ae0565b600e549091506114f0906001600160a01b038d81169116866134ca565b6040805160e0810182526001600160a01b03808e1682528c811660208301523082840181905260608301526080820187905260a082018490525f60c0830152600e5492516312aa3caf60e01b8152919216906312aa3caf9061155c908c9085908d908d90600401614b2e565b60408051808303815f875af1158015611577573d5f803e3d5ffd5b505050506040513d601f19601f8201168201806040525081019061159b9190614bc1565b50600e549096506115b9906001600160a01b038e811691165f6134ca565b8a6001600160a01b03168c6001600160a01b03167fdd36740e2a012d93061a0d99eaa9107860955de4e90027d3cf465a055026c4078c89604051611607929190918252602082015260400190565b60405180910390a350505050505b61162b60015f8051602061513a83398151915255565b9695505050505050565b61163d6122a1565b611074613544565b5f5f195f61165285611bce565b9050610a2b33858388613587565b606060048054610ae8906149cc565b6006546001600160a01b031633146116995760405162461bcd60e51b8152600401610a9590614a29565b6116a161241b565b6116a9612446565b6116b282612461565b6116ba612595565b5f6116c3610940565b90506116cd612d6f565b5f6116d6610940565b90505f828211156116f8576116eb8383614af3565b90506116f681613600565b505b83600381111561170a5761170a614be3565b604080518481526020810184905287917fa614a3512497a6249d33448d76f9c11fb5fca7d9e951492fece1532a12ded252910160405180910390a350505061175e60015f8051602061513a83398151915255565b5050565b6006546001600160a01b0316331461178c5760405162461bcd60e51b8152600401610a9590614a29565b428167ffffffffffffffff1611156117f25760405162461bcd60e51b815260206004820152602360248201527f44656c74614e65757472616c5661756c743a206675747572652074696d6573746044820152620616d760ec1b6064820152608401610a95565b60405167ffffffffffffffff8216815282907f2c66c42e33442340286ed9766a8862867d690791c9f62329cf6509c49e13807b9060200160405180910390a25050565b61183d6122a1565b6105dc8661ffff1611156118a75760405162461bcd60e51b815260206004820152602b60248201527f44656c74614e65757472616c5661756c743a20706572666f726d616e6365206660448201526a0caca40e8dede40d0d2ced60ab1b6064820152608401610a95565b6103e88561ffff1611156119105760405162461bcd60e51b815260206004820152602a60248201527f44656c74614e65757472616c5661756c743a206d616e6167656d656e742066656044820152690ca40e8dede40d0d2ced60b31b6064820152608401610a95565b61ffff8416156119725760405162461bcd60e51b815260206004820152602760248201527f44656c74614e65757472616c5661756c743a20656e74727920666565206d75736044820152667420626520302560c81b6064820152608401610a95565b61ffff8316156119d35760405162461bcd60e51b815260206004820152602660248201527f44656c74614e65757472616c5661756c743a206578697420666565206d75737460448201526520626520302560d01b6064820152608401610a95565b6103e88261ffff161115611a355760405162461bcd60e51b8152602060048201526024808201527f44656c74614e65757472616c5661756c743a20737761702066656520746f6f206044820152630d0d2ced60e31b6064820152608401610a95565b6101f48161ffff161115611a9a5760405162461bcd60e51b815260206004820152602660248201527f44656c74614e65757472616c5661756c743a206b65657065722066656520746f6044820152650de40d0d2ced60d31b6064820152608401610a95565b85600760146101000a81548161ffff021916908361ffff16021790555084600760166101000a81548161ffff021916908361ffff16021790555083600760186101000a81548161ffff021916908361ffff160217905550826007601a6101000a81548161ffff021916908361ffff160217905550816007601c6101000a81548161ffff021916908361ffff160217905550806007601e6101000a81548161ffff021916908361ffff1602179055507fef0a181aded030c02b866bec027594ad4619274061338a7b44465abaac92dc92868686868686604051611bb19695949392919061ffff96871681529486166020860152928516604085015290841660608401528316608083015290911660a082015260c00190565b60405180910390a1505050505050565b5f33610b878185856123be565b5f610b748260016122ce565b5f611be361241b565b611beb612446565b611bf3612595565b5f611bfd85610b91565b9050336001600160a01b03841614611c1a57611c1a833383612342565b611c248382613701565b5f611c2e86613735565b9050611c4d8582611c3d611040565b6001600160a01b031691906137da565b60408051878152602081018490526001600160a01b03808716929088169133917ffbde797d201c681b91056529119e0b02407c7bb96a4a2c75c01fc9667232c8db91015b60405180910390a4509050610c5260015f8051602061513a83398151915255565b5f611cbb61241b565b611cc3612446565b611ccb612595565b336001600160a01b03831614611ce657611ce6823386612342565b5f611cf085610b69565b9050611cfc8386613701565b5f611d0682613735565b9050611d158582611c3d611040565b60408051838152602081018890526001600160a01b03808716929088169133917ffbde797d201c681b91056529119e0b02407c7bb96a4a2c75c01fc9667232c8db9101611c91565b5f610b74825f612313565b6006545f9081906001600160a01b03163314611d965760405162461bcd60e51b8152600401610a9590614a29565b611d9e612446565b600f545f03611def5760405162461bcd60e51b815260206004820152601e60248201527f44656c74614e65757472616c5661756c743a206e6f20706f736974696f6e00006044820152606401610a95565b60408051608081018252600f5481523060208201526001600160801b038183018190526060820152600c54915163fc6f786560e01b815290916001600160a01b03169063fc6f786590611e46908490600401614bf7565b60408051808303815f875af1158015611e61573d5f803e3d5ffd5b505050506040513d601f19601f82011682018060405250810190611e859190614bc1565b60408051838152602081018390529295509093507f49d512bf9cb224241c05691e73eb9fab078cf350c7dbcbcf66788f1fc0cc8b0b910160405180910390a150611edb60015f8051602061513a83398151915255565b9091565b5f610b74610458836120d0565b611ef46122a1565b8060020b8260020b12611f195760405162461bcd60e51b8152600401610a9590614a70565b600b54604080516334324e9f60e21b815290515f926001600160a01b03169163d0c93a7c9160048083019260209291908290030181865afa158015611f60573d5f803e3d5ffd5b505050506040513d601f19601f82011682018060405250810190611f849190614c45565b9050611f908184614c60565b60020b15611fec5760405162461bcd60e51b8152602060048201526024808201527f44656c74614e65757472616c5661756c743a20696e76616c6964207469636b4c60448201526337bbb2b960e11b6064820152608401610a95565b611ff68183614c60565b60020b156120525760405162461bcd60e51b8152602060048201526024808201527f44656c74614e65757472616c5661756c743a20696e76616c6964207469636b55604482015263383832b960e11b6064820152608401610a95565b600e805462ffffff848116600160b81b0262ffffff60b81b19918716600160a01b029190911665ffffffffffff60a01b199092169190911717905560408051600285810b825284900b60208201527f82b9c5defbc17239e92c36b89929e50094c4816a6756df97cdf28967d5f2fd5e910160405180910390a1505050565b6001600160a01b0381165f90815260208190526040812054610b74565b6120f56122a1565b6001600160a01b03811661215e5760405162461bcd60e51b815260206004820152602a60248201527f44656c74614e65757472616c5661756c743a2074726561737572792063616e6e6044820152696f74206265207a65726f60b01b6064820152608401610a95565b600780546001600160a01b038381166001600160a01b0319831681179093556040519116919082907f4ab5be82436d353e61ca18726e984e561f5c1cc7c6d38b29d2553c790434705a905f90a35050565b6121b76122a1565b6001600160a01b0381166121e057604051631e4fbdf760e01b81525f6004820152602401610a95565b6121e98161328c565b50565b5f80600f545f036121ff57505f91829150565b600c54600f5460405163133f757160e31b815260048101919091525f91829182916001600160a01b0316906399fbab889060240161018060405180830381865afa15801561224f573d5f803e3d5ffd5b505050506040513d601f19601f820116820180604052508101906122739190614ca9565b9b509b505050995050505050505050816001600160801b03169450806001600160801b031693505050509091565b6005546001600160a01b031633146110745760405163118cdaa760e01b8152336004820152602401610a95565b5f610c526122da610940565b6122e59060016149b9565b6122f05f600a614e62565b6002546122fd91906149b9565b859190856137e7565b61102d8383836001613829565b5f610c5261232282600a614e62565b60025461232f91906149b9565b612337610940565b6122fd9060016149b9565b6001600160a01b038381165f908152600160209081526040808320938616835292905220545f198110156123b857818110156123aa57604051637dc7a0d960e11b81526001600160a01b03841660048201526024810182905260448101839052606401610a95565b6123b884848484035f613829565b50505050565b6001600160a01b0383166123e757604051634b637e8f60e11b81525f6004820152602401610a95565b6001600160a01b0382166124105760405163ec442f0560e01b81525f6004820152602401610a95565b61102d8383836138ed565b600554600160a01b900460ff16156110745760405163d93c066560e01b815260040160405180910390fd5b61244e613a13565b60025f8051602061513a83398151915255565b5f8061246b613369565b600a54919350915061247d8242614af3565b11156124da5760405162461bcd60e51b815260206004820152602660248201527f44656c74614e65757472616c5661756c743a206f7261636c65206461746120746044820152651bdbc81bdb1960d21b6064820152608401610a95565b5f8284111561250b57826124ee8186614af3565b6124fa90612710614ab5565b6125049190614ae0565b905061252f565b826125168582614af3565b61252290612710614ab5565b61252c9190614ae0565b90505b6009548111156123b85760405162461bcd60e51b815260206004820152602b60248201527f44656c74614e65757472616c5661756c743a207072696365206465766961746960448201526a0dedc40e8dede40d0d2ced60ab1b6064820152608401610a95565b600754600160b01b900461ffff165f036125ab57565b5f601254426125ba9190614af3565b9050805f036125c65750565b5f6125cf610940565b9050805f036125e057505042601255565b6007545f9064496cebb80090849061260390600160b01b900461ffff1685614ab5565b61260d9190614ab5565b6126179190614ae0565b9050801561267d575f61262982611d5d565b600754909150612642906001600160a01b031682613258565b60408051838152602081018390527fa0c6ff14cb80ab9c9fd8e115a2ea6bfa11edd7861096df779289e419d96a343a910160405180910390a1505b50504260125550565b600b546001600160a01b03166126de5760405162461bcd60e51b815260206004820152601f60248201527f44656c74614e65757472616c5661756c743a20706f6f6c206e6f7420736574006044820152606401610a95565b600e54600160b81b8104600290810b600160a01b909204900b126127445760405162461bcd60e51b815260206004820181905260248201527f44656c74614e65757472616c5661756c743a20696e76616c69642072616e67656044820152606401610a95565b600f54156127a75760405162461bcd60e51b815260206004820152602a60248201527f44656c74614e65757472616c5661756c743a20706f736974696f6e20616c72656044820152696164792065786973747360b01b6064820152608401610a95565b5f6127b0611040565b6040516370a0823160e01b81523060048201526001600160a01b0391909116906370a0823190602401602060405180830381865afa1580156127f4573d5f803e3d5ffd5b505050506040513d601f19601f82011682018060405250810190612818919061498e565b90505f81116128755760405162461bcd60e51b8152602060048201526024808201527f44656c74614e65757472616c5661756c743a206e6f205553444320746f20696e6044820152631d995cdd60e21b6064820152608401610a95565b6010545f906001600160a01b031661288b611040565b6001600160a01b03161490505f806128a38484613a42565b915091508280156128b357505f81115b15612970575f6128c382846149b9565b6128cd8387614ab5565b6128d79190614ae0565b90506128f66128e4611040565b6011546001600160a01b031683613b12565b9150612900611040565b6040516370a0823160e01b81523060048201526001600160a01b0391909116906370a0823190602401602060405180830381865afa158015612944573d5f803e3d5ffd5b505050506040513d601f19601f82011682018060405250810190612968919061498e565b925050612a36565b8215801561297d57505f82115b15612a36575f61298d82846149b9565b6129978487614ab5565b6129a19190614ae0565b90506129c06129ae611040565b6010546001600160a01b031683613b12565b92506129ca611040565b6040516370a0823160e01b81523060048201526001600160a01b0391909116906370a0823190602401602060405180830381865afa158015612a0e573d5f803e3d5ffd5b505050506040513d601f19601f82011682018060405250810190612a32919061498e565b9150505b600c54601054612a53916001600160a01b039182169116846134ca565b600c54601154612a70916001600160a01b039182169116836134ca565b5f612710601454612710612a849190614af3565b612a8e9085614ab5565b612a989190614ae0565b90505f612710601454612710612aae9190614af3565b612ab89085614ab5565b612ac29190614ae0565b60408051610160810182526010546001600160a01b0390811682526011548116602080840191909152600b54845163ddca3f4360e01b815285519697505f969495860194919093169263ddca3f439260048083019391928290030181865afa158015612b30573d5f803e3d5ffd5b505050506040513d601f19601f82011682018060405250810190612b549190614e70565b62ffffff168152600e54600160a01b8104600290810b6020840152600160b81b909104900b604080830191909152606082018890526080820187905260a0820186905260c082018590523060e08301524261010090920191909152600c549051634418b22b60e11b81529192505f918291829182916001600160a01b031690638831645690612be7908890600401614e89565b6080604051808303815f875af1158015612c03573d5f803e3d5ffd5b505050506040513d601f19601f82011682018060405250810190612c279190614f4d565b600f849055600c546010549498509296509094509250612c54916001600160a01b0390811691165f6134ca565b600c54601154612c71916001600160a01b0391821691165f6134ca565b604080516001600160801b03851681526020810184905290810182905284907f7180ba4ffa4be9136434b7fa9b09c2c9e382d100e6850652637d0406f33110ff9060600160405180910390a25050505050505050505050565b5f61103b817f0000000000000000000000000000000000000000000000000000000000000000614f86565b612cfd612d45565b6005805460ff60a01b191690557f5db9ee0a495bf2e6ff9c91a7834c1ba4fdd244a5e8aa4e537bd38aeae4b073aa335b6040516001600160a01b0390911681526020016110e5565b600554600160a01b900460ff1661107457604051638dfc202b60e01b815260040160405180910390fd5b600f545f03612d7a57565b600c54600f5460405163133f757160e31b815260048101919091525f916001600160a01b0316906399fbab889060240161018060405180830381865afa158015612dc6573d5f803e3d5ffd5b505050506040513d601f19601f82011682018060405250810190612dea9190614ca9565b505050509750505050505050505f816001600160801b03161115612eca576040805160a081018252600f5481526001600160801b03838116602083019081525f838501818152606085019182524260808601908152600c549651630624e65f60e11b815286516004820152935190941660248401525160448301525160648201529051608482015290916001600160a01b031690630c49ccbe9060a40160408051808303815f875af1158015612ea2573d5f803e3d5ffd5b505050506040513d601f19601f82011682018060405250810190612ec69190614bc1565b5050505b60408051608081018252600f5481523060208201526001600160801b038183018190526060820152600c54915163fc6f786560e01b815290915f9182916001600160a01b03169063fc6f786590612f25908690600401614bf7565b60408051808303815f875af1158015612f40573d5f803e3d5ffd5b505050506040513d601f19601f82011682018060405250810190612f649190614bc1565b600c54600f54604051630852cd8d60e31b81529395509193506001600160a01b0316916342966c6891612f9d9160040190815260200190565b5f604051808303815f87803b158015612fb4575f80fd5b505af1158015612fc6573d5f803e3d5ffd5b5050600f5460408051868152602081018690525f818301819052606082015290519193507fa5ffa54c20fe3f85702db9dfbd52388f27504faa97794a1edfe2b2cafeb1a483925081900360800190a25f600f8190556010546040516370a0823160e01b81523060048201526001600160a01b03909116906370a0823190602401602060405180830381865afa158015613061573d5f803e3d5ffd5b505050506040513d601f19601f82011682018060405250810190613085919061498e565b6011546040516370a0823160e01b81523060048201529192505f916001600160a01b03909116906370a0823190602401602060405180830381865afa1580156130d0573d5f803e3d5ffd5b505050506040513d601f19601f820116820180604052508101906130f4919061498e565b6010549091506001600160a01b031661310b611040565b6001600160a01b03160361314457801561313f5760115461313d906001600160a01b0316613137611040565b83613b12565b505b61316a565b811561316a57601054613168906001600160a01b0316613162611040565b84613b12565b505b505050505050565b613180848484846001613dac565b6123b857604051635274afe760e01b81526001600160a01b0385166004820152602401610a95565b6007545f90600160c01b900461ffff1681036131c2575090565b6007545f90612710906131e090600160c01b900461ffff1685614ab5565b6131ea9190614ae0565b90506131f68184614af3565b9150801561325257600754613217906001600160a01b031682611c3d611040565b60408051848152602081018390527fa817354608f61b7fe0d1d6e3e80474440080c06153c4304039bbfc9b466dee8191015b60405180910390a15b50919050565b6001600160a01b0382166132815760405163ec442f0560e01b81525f6004820152602401610a95565b61175e5f83836138ed565b600580546001600160a01b038381166001600160a01b0319831681179093556040519116919082907f8be0079c531659141344cd1fd0a4f28419497f9722a3daafe3b4186f6b6457e0905f90a35050565b6007545f90600160e01b900461ffff1681036132f7575090565b6007545f906127109061331590600160e01b900461ffff1685614ab5565b61331f9190614ae0565b905061332b8184614af3565b915080156132525760408051848152602081018390527f5a1766550e4ad7a7aed3ae02c0d8964ea55530b5e34ad02983f3aadf54343aee9101613249565b5f805f805f8060085f9054906101000a90046001600160a01b03166001600160a01b031663feaf968c6040518163ffffffff1660e01b815260040160a060405180830381865afa1580156133bf573d5f803e3d5ffd5b505050506040513d601f19601f820116820180604052508101906133e39190614fb8565b9450945050935093505f831361344b5760405162461bcd60e51b815260206004820152602760248201527f44656c74614e65757472616c5661756c743a20696e76616c6964206f7261636c6044820152666520707269636560c81b6064820152608401610a95565b8369ffffffffffffffffffff168169ffffffffffffffffffff1610156134bf5760405162461bcd60e51b8152602060048201526024808201527f44656c74614e65757472616c5661756c743a207374616c65206f7261636c65206044820152636461746160e01b6064820152608401610a95565b509094909350915050565b6134d68383835f613e19565b61102d576134e783835f6001613e19565b61350f57604051635274afe760e01b81526001600160a01b0384166004820152602401610a95565b61351c8383836001613e19565b61102d57604051635274afe760e01b81526001600160a01b0384166004820152602401610a95565b61354c61241b565b6005805460ff60a01b1916600160a01b1790557f62e78cea01bee320cd4e420270b5ea74000d11b0c9f74754ebdbfc544b05a258612d2d3390565b61359a613592611040565b853085613172565b6135a48382613258565b826001600160a01b0316846001600160a01b03167fdcbc1c05240f31ff3ad067ef1ee35ce4997762752e3a095284754544f4c709d784846040516135f2929190918252602082015260400190565b60405180910390a350505050565b6007545f90600160a01b900461ffff16158061361a575081155b15613623575090565b5f61362c610940565b90506013548111156136fa575f601354826136479190614af3565b9050838111156136545750825b6007545f906127109061367290600160a01b900461ffff1684614ab5565b61367c9190614ae0565b90506136888186614af3565b935080156136ee575f61369a82611d5d565b6007549091506136b3906001600160a01b031682613258565b60408051878152602081018490527fe63e4ecd17ba7170c4b78fcbb3b74a9e4a07ee6d85d6a31503c838f52fa67e9c910160405180910390a1505b50506013819055613252565b5090919050565b6001600160a01b03821661372a57604051634b637e8f60e11b81525f6004820152602401610a95565b61175e825f836138ed565b6007545f90600160d01b900461ffff16810361374f575090565b6007545f906127109061376d90600160d01b900461ffff1685614ab5565b6137779190614ae0565b90506137838184614af3565b91508015613252576007546137a4906001600160a01b031682611c3d611040565b60408051848152602081018390527f18085c7433e68b8076dd7dab070eee9c112dafb874364583ba24a4a3f7f306cc9101613249565b61351c8383836001613e7b565b5f6138146137f483613ec5565b801561380f57505f848061380a5761380a614acc565b868809115b151590565b61381f868686613ef1565b610a2891906149b9565b6001600160a01b0384166138525760405163e602df0560e01b81525f6004820152602401610a95565b6001600160a01b03831661387b57604051634a1406b160e11b81525f6004820152602401610a95565b6001600160a01b038085165f90815260016020908152604080832093871683529290522082905580156123b857826001600160a01b0316846001600160a01b03167f8c5be1e5ebec7d5bd14f71427d1e84f3dd0314c0f7b2291e5b200ac8c7c3b925846040516135f291815260200190565b6001600160a01b038316613917578060025f82825461390c91906149b9565b909155506139879050565b6001600160a01b0383165f90815260208190526040902054818110156139695760405163391434e360e21b81526001600160a01b03851660048201526024810182905260448101839052606401610a95565b6001600160a01b0384165f9081526020819052604090209082900390555b6001600160a01b0382166139a3576002805482900390556139c1565b6001600160a01b0382165f9081526020819052604090208054820190555b816001600160a01b0316836001600160a01b03167fddf252ad1be2c89b69c2b068fc378daa952ba7f163c4a11628f55a4df523b3ef83604051613a0691815260200190565b60405180910390a3505050565b5f8051602061513a8339815191525460020361107457604051633ee5aeb560e01b815260040160405180910390fd5b5f805f600b5f9054906101000a90046001600160a01b03166001600160a01b0316633850c7bd6040518163ffffffff1660e01b815260040160e060405180830381865afa158015613a95573d5f803e3d5ffd5b505050506040513d601f19601f82011682018060405250810190613ab99190615004565b50505050505090505f613ada600e60149054906101000a900460020b613fa1565b600e549091505f90613af590600160b81b900460020b613fa1565b9050613b04878484848a6143b2565b909890975095505050505050565b5f815f03613b2157505f610c52565b5f613b2b836132dd565b600d54909150613b48906001600160a01b038781169116836134ca565b5f613b51613369565b5090505f670de0b6b3a7640000613b688385614ab5565b613b729190614ae0565b90505f612710601454612710613b889190614af3565b613b929084614ab5565b613b9c9190614ae0565b90505f6040518061010001604052808a6001600160a01b03168152602001896001600160a01b03168152602001600b5f9054906101000a90046001600160a01b03166001600160a01b031663ddca3f436040518163ffffffff1660e01b8152600401602060405180830381865afa158015613c19573d5f803e3d5ffd5b505050506040513d601f19601f82011682018060405250810190613c3d9190614e70565b62ffffff9081168252306020808401919091524260408085019190915260608085018b905260808086018990525f60a096870152600d54835163414bf38960e01b815288516001600160a01b0390811660048301529589015186166024820152938801519095166044840152908601518316606483015285015160848201529284015160a484015260c084015160c484015260e0840151811660e4840152929350919091169063414bf38990610104016020604051808303815f875af1158015613d09573d5f803e3d5ffd5b505050506040513d601f19601f82011682018060405250810190613d2d919061498e565b600d54909650613d4a906001600160a01b038b811691165f6134ca565b876001600160a01b0316896001600160a01b03167fdd36740e2a012d93061a0d99eaa9107860955de4e90027d3cf465a055026c4078989604051613d98929190918252602082015260400190565b60405180910390a350505050509392505050565b6040516323b872dd60e01b5f8181526001600160a01b038781166004528616602452604485905291602083606481808c5af1925060015f51148316613e08578383151615613dfc573d5f823e3d81fd5b5f883b113d1516831692505b604052505f60605295945050505050565b60405163095ea7b360e01b5f8181526001600160a01b038616600452602485905291602083604481808b5af1925060015f51148316613e6f578383151615613e63573d5f823e3d81fd5b5f873b113d1516831692505b60405250949350505050565b60405163a9059cbb60e01b5f8181526001600160a01b038616600452602485905291602083604481808b5af1925060015f51148316613e6f578383151615613e63573d5f823e3d81fd5b5f6002826003811115613eda57613eda614be3565b613ee491906150a4565b60ff166001149050919050565b5f805f613efe86866144ec565b91509150815f03613f2257838181613f1857613f18614acc565b0492505050610c52565b818411613f3957613f396003851502601118614508565b5f848688095f868103871696879004966002600389028118808a02820302808a02820302808a02820302808a02820302808a02820302808a02909103029181900381900460010185841190960395909502919093039390930492909217029150509392505050565b5f805f8360020b12613fb6578260020b613fc3565b8260020b613fc3906150c5565b9050613fd2620d89e7196150df565b60020b8111156140085760405162461bcd60e51b81526020600482015260016024820152601560fa1b6044820152606401610a95565b5f816001165f0361401d57600160801b61402f565b6ffffcb933bd6fad37aa2d162d1a5940015b70ffffffffffffffffffffffffffffffffff169050600282161561406e576080614069826ffff97272373d413259a46990580e213a614ab5565b901c90505b6004821615614098576080614093826ffff2e50f5f656932ef12357cf3c7fdcc614ab5565b901c90505b60088216156140c25760806140bd826fffe5caca7e10e4e61c3624eaa0941cd0614ab5565b901c90505b60108216156140ec5760806140e7826fffcb9843d60f6159c9db58835c926644614ab5565b901c90505b6020821615614116576080614111826fff973b41fa98c081472e6896dfb254c0614ab5565b901c90505b604082161561414057608061413b826fff2ea16466c96a3843ec78b326b52861614ab5565b901c90505b608082161561416a576080614165826ffe5dee046a99a2a811c461f1969c3053614ab5565b901c90505b610100821615614195576080614190826ffcbe86c7900a88aedcffc83b479aa3a4614ab5565b901c90505b6102008216156141c05760806141bb826ff987a7253ac413176f2b074cf7815e54614ab5565b901c90505b6104008216156141eb5760806141e6826ff3392b0822b70005940c7a398e4b70f3614ab5565b901c90505b610800821615614216576080614211826fe7159475a2c29b7443b29c7fa6e889d9614ab5565b901c90505b61100082161561424157608061423c826fd097f3bdfd2022b8845ad8f792aa5825614ab5565b901c90505b61200082161561426c576080614267826fa9f746462d870fdf8a65dc1f90e061e5614ab5565b901c90505b614000821615614297576080614292826f70d869a156d2a1b890bb3df62baf32f7614ab5565b901c90505b6180008216156142c25760806142bd826f31be135f97d08fd981231505542fcfa6614ab5565b901c90505b620100008216156142ee5760806142e9826f09aa508b5b7a84e1c677de54f3e99bc9614ab5565b901c90505b62020000821615614319576080614314826e5d6af8dedb81196699c329225ee604614ab5565b901c90505b6204000082161561434357608061433e826d2216e584f5fa1ea926041bedfe98614ab5565b901c90505b6208000082161561436b576080614366826b048a170391f7dc42444e8fa2614ab5565b901c90505b5f8460020b131561438457614381815f19614ae0565b90505b614393640100000000826150ff565b1561439f5760016143a1565b5f5b610a2b9060ff16602083901c6149b9565b5f80836001600160a01b0316856001600160a01b031611156143d2579293925b846001600160a01b0316866001600160a01b0316116144055782156143fb57508590505f6144e2565b505f9050856144e2565b836001600160a01b0316866001600160a01b03161061443857821561442e57505f9050856144e2565b508590505f6144e2565b5f6144438688615112565b6001600160a01b031690505f6144598787615112565b6001600160a01b031690505f8161447284612710614ab5565b61447c9190614ae0565b905085156144b8576127106144918282614af3565b61449b908c614ab5565b6144a59190614ae0565b94506144b1858b614af3565b93506144de565b6127106144c5828c614ab5565b6144cf9190614ae0565b93506144db848b614af3565b94505b5050505b9550959350505050565b5f805f1983850993909202808410938190039390930393915050565b634e487b715f52806020526024601cfd5b5f60208284031215614529575f80fd5b5035919050565b5f602080835283518060208501525f5b8181101561455c57858101830151858201604001528201614540565b505f604082860101526040601f19601f8301168501019250505092915050565b6001600160a01b03811681146121e9575f80fd5b5f80604083850312156145a1575f80fd5b82356145ac8161457c565b946020939093013593505050565b5f8083601f8401126145ca575f80fd5b50813567ffffffffffffffff8111156145e1575f80fd5b6020830191508360208285010111156145f8575f80fd5b9250929050565b5f805f805f60808688031215614613575f80fd5b853561461e8161457c565b9450602086013561462e8161457c565b935060408601359250606086013567ffffffffffffffff811115614650575f80fd5b61465c888289016145ba565b969995985093965092949392505050565b5f6020828403121561467d575f80fd5b8135610c528161457c565b5f805f6060848603121561469a575f80fd5b83356146a58161457c565b925060208401356146b58161457c565b929592945050506040919091013590565b5f805f606084860312156146d8575f80fd5b83356146e38161457c565b925060208401356146f38161457c565b915060408401356147038161457c565b809150509250925092565b8060020b81146121e9575f80fd5b5f805f6060848603121561472e575f80fd5b8335925060208401356147408161470e565b915060408401356147038161470e565b5f8060408385031215614761575f80fd5b8235915060208301356147738161457c565b809150509250929050565b5f805f60608486031215614790575f80fd5b833561479b8161457c565b95602085013595506040909401359392505050565b5f805f805f8060a087890312156147c5575f80fd5b86356147d08161457c565b955060208701356147e08161457c565b94506040870135935060608701356147f78161457c565b9250608087013567ffffffffffffffff811115614812575f80fd5b61481e89828a016145ba565b979a9699509497509295939492505050565b5f8060408385031215614841575f80fd5b82359150602083013560048110614773575f80fd5b5f8060408385031215614867575f80fd5b82359150602083013567ffffffffffffffff81168114614773575f80fd5b61ffff811681146121e9575f80fd5b5f805f805f8060c087890312156148a9575f80fd5b86356148b481614885565b955060208701356148c481614885565b945060408701356148d481614885565b935060608701356148e481614885565b925060808701356148f481614885565b915060a087013561490481614885565b809150509295509295509295565b5f805f60608486031215614924575f80fd5b8335925060208401356146f38161457c565b5f8060408385031215614947575f80fd5b82356149528161470e565b915060208301356147738161470e565b5f8060408385031215614973575f80fd5b823561497e8161457c565b915060208301356147738161457c565b5f6020828403121561499e575f80fd5b5051919050565b634e487b7160e01b5f52601160045260245ffd5b80820180821115610b7457610b746149a5565b600181811c908216806149e057607f821691505b60208210810361325257634e487b7160e01b5f52602260045260245ffd5b8051614a098161457c565b919050565b5f60208284031215614a1e575f80fd5b8151610c528161457c565b60208082526027908201527f44656c74614e65757472616c5661756c743a2063616c6c6572206973206e6f746040820152661035b2b2b832b960c91b606082015260800190565b60208082526025908201527f44656c74614e65757472616c5661756c743a20696e76616c6964207469636b2060408201526472616e676560d81b606082015260800190565b8082028115828204841417610b7457610b746149a5565b634e487b7160e01b5f52601260045260245ffd5b5f82614aee57614aee614acc565b500490565b81810381811115610b7457610b746149a5565b81835281816020850137505f828201602090810191909152601f909101601f19169091010190565b5f61014060018060a01b03808816845280875116602085015280602088015116604085015280604088015116606085015280606088015116608085015250608086015160a084015260a086015160c084015260c086015160e084015280610100840152614ba08184015f815260200190565b9050828103610120840152614bb6818587614b06565b979650505050505050565b5f8060408385031215614bd2575f80fd5b505080516020909101519092909150565b634e487b7160e01b5f52602160045260245ffd5b815181526020808301516001600160a01b0316908201526040808301516001600160801b0390811691830191909152606092830151169181019190915260800190565b8051614a098161470e565b5f60208284031215614c55575f80fd5b8151610c528161470e565b5f8260020b80614c7257614c72614acc565b808360020b0791505092915050565b805162ffffff81168114614a09575f80fd5b80516001600160801b0381168114614a09575f80fd5b5f805f805f805f805f805f806101808d8f031215614cc5575f80fd5b8c516bffffffffffffffffffffffff81168114614ce0575f80fd5b9b50614cee60208e016149fe565b9a50614cfc60408e016149fe565b9950614d0a60608e016149fe565b9850614d1860808e01614c81565b9750614d2660a08e01614c3a565b9650614d3460c08e01614c3a565b9550614d4260e08e01614c93565b94506101008d015193506101208d01519250614d616101408e01614c93565b9150614d706101608e01614c93565b90509295989b509295989b509295989b565b600181815b80851115614dbc57815f1904821115614da257614da26149a5565b80851615614daf57918102915b93841c9390800290614d87565b509250929050565b5f82614dd257506001610b74565b81614dde57505f610b74565b8160018114614df45760028114614dfe57614e1a565b6001915050610b74565b60ff841115614e0f57614e0f6149a5565b50506001821b610b74565b5060208310610133831016604e8410600b8410161715614e3d575081810a610b74565b614e478383614d82565b805f1904821115614e5a57614e5a6149a5565b029392505050565b5f610c5260ff841683614dc4565b5f60208284031215614e80575f80fd5b610c5282614c81565b81516001600160a01b0316815261016081016020830151614eb560208401826001600160a01b03169052565b506040830151614ecc604084018262ffffff169052565b506060830151614ee1606084018260020b9052565b506080830151614ef6608084018260020b9052565b5060a083015160a083015260c083015160c083015260e083015160e083015261010080840151818401525061012080840151614f3c828501826001600160a01b03169052565b505061014092830151919092015290565b5f805f8060808587031215614f60575f80fd5b84519350614f7060208601614c93565b6040860151606090960151949790965092505050565b60ff8181168382160190811115610b7457610b746149a5565b805169ffffffffffffffffffff81168114614a09575f80fd5b5f805f805f60a08688031215614fcc575f80fd5b614fd586614f9f565b9450602086015193506040860151925060608601519150614ff860808701614f9f565b90509295509295909350565b5f805f805f805f60e0888a03121561501a575f80fd5b87516150258161457c565b60208901519097506150368161470e565b604089015190965061504781614885565b606089015190955061505881614885565b608089015190945061506981614885565b60a089015190935060ff8116811461507f575f80fd5b60c08901519092508015158114615094575f80fd5b8091505092959891949750929550565b5f60ff8316806150b6576150b6614acc565b8060ff84160691505092915050565b5f600160ff1b82016150d9576150d96149a5565b505f0390565b5f8160020b627fffff1981036150f7576150f76149a5565b5f0392915050565b5f8261510d5761510d614acc565b500690565b6001600160a01b03828116828216039080821115615132576151326149a5565b509291505056fe9b779b17422d0df92223018b32b4d1fa46e071723d6817e2486d003becc55f00a2646970667358221220492da4b0c7a314e74db9a0eea89da88eb2832060d6e8365f9e07c0c139ef055164736f6c63430008180033","linkReferences":{}},"methodIdentifiers":{"allowance(address,address)":"dd62ed3e","approve(address,uint256)":"095ea7b3","asset()":"38d52e0f","autoExit(uint256,uint8)":"99eaafb2","autoReenter(uint256,int24,int24)":"2bf999f5","balanceOf(address)":"70a08231","chainlinkPriceFeed()":"d8a2b7f0","collectFees()":"c8796572","convertToAssets(uint256)":"07a2d13a","convertToShares(uint256)":"c6e6f592","decimals()":"313ce567","deposit(uint256,address)":"6e553f65","emergencyExitToUSDC()":"5d978aae","entryFeeBps()":"578334ee","executeSwapVia1inch(address,address,uint256,address,bytes)":"8096f2c1","exitFeeBps()":"57b17a52","highWaterMark()":"1e8410da","keeper()":"aced1661","keeperFeeBps()":"0eab7d63","lastManagementFeeTimestamp()":"9733fa80","managementFeeBps()":"3813c35a","maxDeposit(address)":"402d267d","maxMint(address)":"c63d75b6","maxOracleDelay()":"52f1edcc","maxOracleDeviationBps()":"4cf55042","maxRedeem(address)":"d905777e","maxSlippageBps()":"c4aa7395","maxWithdraw(address)":"ce96cb77","mint(uint256,address)":"94bf804d","name()":"06fdde03","onERC721Received(address,address,uint256,bytes)":"150b7a02","oneInchRouter()":"ac3af208","owner()":"8da5cb5b","pause()":"8456cb59","paused()":"5c975abb","performanceFeeBps()":"b9d4e879","positionManager()":"791b98bc","previewDeposit(uint256)":"ef8b30f7","previewMint(uint256)":"b3d7f6b9","previewRedeem(uint256)":"4cdad506","previewWithdraw(uint256)":"0a28a477","recordHedgeState(bytes32,uint64)":"a5e40ae7","redeem(uint256,address,address)":"ba087652","renounceOwnership()":"715018a6","setFees(uint16,uint16,uint16,uint16,uint16,uint16)":"a854104e","setKeeper(address)":"748747e6","setOneInchRouter(address)":"1d2dc7c3","setOracles(address,uint256,uint256)":"6eea9313","setRange(int24,int24)":"d0d17b64","setSlippageParams(uint256)":"046fc7f2","setTreasury(address)":"f0f44260","setUniswapConfig(address,address,address)":"25e445e4","swapFeeBps()":"2ffdaf89","swapRouter()":"c31c9c07","symbol()":"95d89b41","tickLower()":"59c4f905","tickUpper()":"55b812a8","token0()":"0dfe1681","token1()":"d21220a7","tokenId()":"17d70f7c","totalAssets()":"01e1d114","totalSupply()":"18160ddd","transfer(address,uint256)":"a9059cbb","transferFrom(address,address,uint256)":"23b872dd","transferOwnership(address)":"f2fde38b","treasury()":"61d027b3","uniswapPool()":"bdd3d825","unpause()":"3f4ba83a","updateAccounting()":"494347e7","withdraw(uint256,address,address)":"b460af94"},"id":47}